{
  "contractName": "NFTKEYMarketplaceV2",
  "abi": [
    {
      "inputs": [
        {
          "internalType": "address",
          "name": "_paymentTokenAddress",
          "type": "address"
        }
      ],
      "stateMutability": "nonpayable",
      "type": "constructor"
    },
    {
      "anonymous": false,
      "inputs": [
        {
          "indexed": true,
          "internalType": "address",
          "name": "previousOwner",
          "type": "address"
        },
        {
          "indexed": true,
          "internalType": "address",
          "name": "newOwner",
          "type": "address"
        }
      ],
      "name": "OwnershipTransferred",
      "type": "event"
    },
    {
      "anonymous": false,
      "inputs": [
        {
          "indexed": true,
          "internalType": "address",
          "name": "erc721Address",
          "type": "address"
        },
        {
          "indexed": true,
          "internalType": "address",
          "name": "recipient",
          "type": "address"
        },
        {
          "indexed": false,
          "internalType": "uint256",
          "name": "feeFraction",
          "type": "uint256"
        }
      ],
      "name": "SetRoyalty",
      "type": "event"
    },
    {
      "anonymous": false,
      "inputs": [
        {
          "indexed": true,
          "internalType": "address",
          "name": "erc721Address",
          "type": "address"
        },
        {
          "indexed": true,
          "internalType": "uint256",
          "name": "tokenId",
          "type": "uint256"
        },
        {
          "indexed": true,
          "internalType": "address",
          "name": "seller",
          "type": "address"
        },
        {
          "components": [
            {
              "internalType": "uint256",
              "name": "tokenId",
              "type": "uint256"
            },
            {
              "internalType": "uint256",
              "name": "value",
              "type": "uint256"
            },
            {
              "internalType": "address",
              "name": "bidder",
              "type": "address"
            },
            {
              "internalType": "uint256",
              "name": "expireTimestamp",
              "type": "uint256"
            }
          ],
          "indexed": false,
          "internalType": "struct INFTKEYMarketplaceV2.Bid",
          "name": "bid",
          "type": "tuple"
        },
        {
          "indexed": false,
          "internalType": "uint256",
          "name": "serviceFee",
          "type": "uint256"
        },
        {
          "indexed": false,
          "internalType": "uint256",
          "name": "royaltyFee",
          "type": "uint256"
        }
      ],
      "name": "TokenBidAccepted",
      "type": "event"
    },
    {
      "anonymous": false,
      "inputs": [
        {
          "indexed": true,
          "internalType": "address",
          "name": "erc721Address",
          "type": "address"
        },
        {
          "indexed": true,
          "internalType": "uint256",
          "name": "tokenId",
          "type": "uint256"
        },
        {
          "components": [
            {
              "internalType": "uint256",
              "name": "tokenId",
              "type": "uint256"
            },
            {
              "internalType": "uint256",
              "name": "value",
              "type": "uint256"
            },
            {
              "internalType": "address",
              "name": "bidder",
              "type": "address"
            },
            {
              "internalType": "uint256",
              "name": "expireTimestamp",
              "type": "uint256"
            }
          ],
          "indexed": false,
          "internalType": "struct INFTKEYMarketplaceV2.Bid",
          "name": "bid",
          "type": "tuple"
        }
      ],
      "name": "TokenBidEntered",
      "type": "event"
    },
    {
      "anonymous": false,
      "inputs": [
        {
          "indexed": true,
          "internalType": "address",
          "name": "erc721Address",
          "type": "address"
        },
        {
          "indexed": true,
          "internalType": "uint256",
          "name": "tokenId",
          "type": "uint256"
        },
        {
          "components": [
            {
              "internalType": "uint256",
              "name": "tokenId",
              "type": "uint256"
            },
            {
              "internalType": "uint256",
              "name": "value",
              "type": "uint256"
            },
            {
              "internalType": "address",
              "name": "bidder",
              "type": "address"
            },
            {
              "internalType": "uint256",
              "name": "expireTimestamp",
              "type": "uint256"
            }
          ],
          "indexed": false,
          "internalType": "struct INFTKEYMarketplaceV2.Bid",
          "name": "bid",
          "type": "tuple"
        }
      ],
      "name": "TokenBidWithdrawn",
      "type": "event"
    },
    {
      "anonymous": false,
      "inputs": [
        {
          "indexed": true,
          "internalType": "address",
          "name": "erc721Address",
          "type": "address"
        },
        {
          "indexed": true,
          "internalType": "uint256",
          "name": "tokenId",
          "type": "uint256"
        },
        {
          "indexed": true,
          "internalType": "address",
          "name": "buyer",
          "type": "address"
        },
        {
          "components": [
            {
              "internalType": "uint256",
              "name": "tokenId",
              "type": "uint256"
            },
            {
              "internalType": "uint256",
              "name": "value",
              "type": "uint256"
            },
            {
              "internalType": "address",
              "name": "seller",
              "type": "address"
            },
            {
              "internalType": "uint256",
              "name": "expireTimestamp",
              "type": "uint256"
            }
          ],
          "indexed": false,
          "internalType": "struct INFTKEYMarketplaceV2.Listing",
          "name": "listing",
          "type": "tuple"
        },
        {
          "indexed": false,
          "internalType": "uint256",
          "name": "serviceFee",
          "type": "uint256"
        },
        {
          "indexed": false,
          "internalType": "uint256",
          "name": "royaltyFee",
          "type": "uint256"
        }
      ],
      "name": "TokenBought",
      "type": "event"
    },
    {
      "anonymous": false,
      "inputs": [
        {
          "indexed": true,
          "internalType": "address",
          "name": "erc721Address",
          "type": "address"
        },
        {
          "indexed": true,
          "internalType": "uint256",
          "name": "tokenId",
          "type": "uint256"
        },
        {
          "components": [
            {
              "internalType": "uint256",
              "name": "tokenId",
              "type": "uint256"
            },
            {
              "internalType": "uint256",
              "name": "value",
              "type": "uint256"
            },
            {
              "internalType": "address",
              "name": "seller",
              "type": "address"
            },
            {
              "internalType": "uint256",
              "name": "expireTimestamp",
              "type": "uint256"
            }
          ],
          "indexed": false,
          "internalType": "struct INFTKEYMarketplaceV2.Listing",
          "name": "listing",
          "type": "tuple"
        }
      ],
      "name": "TokenDelisted",
      "type": "event"
    },
    {
      "anonymous": false,
      "inputs": [
        {
          "indexed": true,
          "internalType": "address",
          "name": "erc721Address",
          "type": "address"
        },
        {
          "indexed": true,
          "internalType": "uint256",
          "name": "tokenId",
          "type": "uint256"
        },
        {
          "components": [
            {
              "internalType": "uint256",
              "name": "tokenId",
              "type": "uint256"
            },
            {
              "internalType": "uint256",
              "name": "value",
              "type": "uint256"
            },
            {
              "internalType": "address",
              "name": "seller",
              "type": "address"
            },
            {
              "internalType": "uint256",
              "name": "expireTimestamp",
              "type": "uint256"
            }
          ],
          "indexed": false,
          "internalType": "struct INFTKEYMarketplaceV2.Listing",
          "name": "listing",
          "type": "tuple"
        }
      ],
      "name": "TokenListed",
      "type": "event"
    },
    {
      "inputs": [],
      "name": "defaultRoyaltyFraction",
      "outputs": [
        {
          "internalType": "uint256",
          "name": "",
          "type": "uint256"
        }
      ],
      "stateMutability": "view",
      "type": "function",
      "constant": true
    },
    {
      "inputs": [],
      "name": "owner",
      "outputs": [
        {
          "internalType": "address",
          "name": "",
          "type": "address"
        }
      ],
      "stateMutability": "view",
      "type": "function",
      "constant": true
    },
    {
      "inputs": [],
      "name": "renounceOwnership",
      "outputs": [],
      "stateMutability": "nonpayable",
      "type": "function"
    },
    {
      "inputs": [
        {
          "internalType": "address",
          "name": "erc721Address",
          "type": "address"
        }
      ],
      "name": "royalty",
      "outputs": [
        {
          "components": [
            {
              "internalType": "address",
              "name": "recipient",
              "type": "address"
            },
            {
              "internalType": "uint256",
              "name": "feeFraction",
              "type": "uint256"
            },
            {
              "internalType": "address",
              "name": "setBy",
              "type": "address"
            }
          ],
          "internalType": "struct INFTKEYMarketplaceRoyalty.ERC721CollectionRoyalty",
          "name": "",
          "type": "tuple"
        }
      ],
      "stateMutability": "view",
      "type": "function",
      "constant": true
    },
    {
      "inputs": [],
      "name": "royaltyUpperLimit",
      "outputs": [
        {
          "internalType": "uint256",
          "name": "",
          "type": "uint256"
        }
      ],
      "stateMutability": "view",
      "type": "function",
      "constant": true
    },
    {
      "inputs": [
        {
          "internalType": "address",
          "name": "erc721Address",
          "type": "address"
        },
        {
          "internalType": "address",
          "name": "newRecipient",
          "type": "address"
        },
        {
          "internalType": "uint256",
          "name": "feeFraction",
          "type": "uint256"
        }
      ],
      "name": "setRoyalty",
      "outputs": [],
      "stateMutability": "nonpayable",
      "type": "function"
    },
    {
      "inputs": [
        {
          "internalType": "address",
          "name": "erc721Address",
          "type": "address"
        },
        {
          "internalType": "address",
          "name": "newRecipient",
          "type": "address"
        },
        {
          "internalType": "uint256",
          "name": "feeFraction",
          "type": "uint256"
        }
      ],
      "name": "setRoyaltyForCollection",
      "outputs": [],
      "stateMutability": "nonpayable",
      "type": "function"
    },
    {
      "inputs": [
        {
          "internalType": "address",
          "name": "newOwner",
          "type": "address"
        }
      ],
      "name": "transferOwnership",
      "outputs": [],
      "stateMutability": "nonpayable",
      "type": "function"
    },
    {
      "inputs": [
        {
          "internalType": "uint256",
          "name": "_newUpperLimit",
          "type": "uint256"
        }
      ],
      "name": "updateRoyaltyUpperLimit",
      "outputs": [],
      "stateMutability": "nonpayable",
      "type": "function"
    },
    {
      "inputs": [
        {
          "internalType": "address",
          "name": "erc721Address",
          "type": "address"
        },
        {
          "internalType": "uint256",
          "name": "tokenId",
          "type": "uint256"
        },
        {
          "internalType": "uint256",
          "name": "value",
          "type": "uint256"
        },
        {
          "internalType": "uint256",
          "name": "expireTimestamp",
          "type": "uint256"
        }
      ],
      "name": "listToken",
      "outputs": [],
      "stateMutability": "nonpayable",
      "type": "function"
    },
    {
      "inputs": [
        {
          "internalType": "address",
          "name": "erc721Address",
          "type": "address"
        },
        {
          "internalType": "uint256",
          "name": "tokenId",
          "type": "uint256"
        }
      ],
      "name": "delistToken",
      "outputs": [],
      "stateMutability": "nonpayable",
      "type": "function"
    },
    {
      "inputs": [
        {
          "internalType": "address",
          "name": "erc721Address",
          "type": "address"
        },
        {
          "internalType": "uint256",
          "name": "tokenId",
          "type": "uint256"
        }
      ],
      "name": "buyToken",
      "outputs": [],
      "stateMutability": "payable",
      "type": "function",
      "payable": true
    },
    {
      "inputs": [
        {
          "internalType": "address",
          "name": "erc721Address",
          "type": "address"
        },
        {
          "internalType": "uint256",
          "name": "tokenId",
          "type": "uint256"
        },
        {
          "internalType": "uint256",
          "name": "value",
          "type": "uint256"
        },
        {
          "internalType": "uint256",
          "name": "expireTimestamp",
          "type": "uint256"
        }
      ],
      "name": "enterBidForToken",
      "outputs": [],
      "stateMutability": "nonpayable",
      "type": "function"
    },
    {
      "inputs": [
        {
          "internalType": "address",
          "name": "erc721Address",
          "type": "address"
        },
        {
          "internalType": "uint256",
          "name": "tokenId",
          "type": "uint256"
        }
      ],
      "name": "withdrawBidForToken",
      "outputs": [],
      "stateMutability": "nonpayable",
      "type": "function"
    },
    {
      "inputs": [
        {
          "internalType": "address",
          "name": "erc721Address",
          "type": "address"
        },
        {
          "internalType": "uint256",
          "name": "tokenId",
          "type": "uint256"
        },
        {
          "internalType": "address",
          "name": "bidder",
          "type": "address"
        },
        {
          "internalType": "uint256",
          "name": "value",
          "type": "uint256"
        }
      ],
      "name": "acceptBidForToken",
      "outputs": [],
      "stateMutability": "nonpayable",
      "type": "function"
    },
    {
      "inputs": [],
      "name": "isTradingEnabled",
      "outputs": [
        {
          "internalType": "bool",
          "name": "",
          "type": "bool"
        }
      ],
      "stateMutability": "view",
      "type": "function",
      "constant": true
    },
    {
      "inputs": [
        {
          "internalType": "address",
          "name": "erc721Address",
          "type": "address"
        },
        {
          "internalType": "uint256",
          "name": "tokenId",
          "type": "uint256"
        }
      ],
      "name": "getTokenListing",
      "outputs": [
        {
          "components": [
            {
              "internalType": "uint256",
              "name": "tokenId",
              "type": "uint256"
            },
            {
              "internalType": "uint256",
              "name": "value",
              "type": "uint256"
            },
            {
              "internalType": "address",
              "name": "seller",
              "type": "address"
            },
            {
              "internalType": "uint256",
              "name": "expireTimestamp",
              "type": "uint256"
            }
          ],
          "internalType": "struct INFTKEYMarketplaceV2.Listing",
          "name": "validListing",
          "type": "tuple"
        }
      ],
      "stateMutability": "view",
      "type": "function",
      "constant": true
    },
    {
      "inputs": [
        {
          "internalType": "address",
          "name": "erc721Address",
          "type": "address"
        }
      ],
      "name": "numTokenListings",
      "outputs": [
        {
          "internalType": "uint256",
          "name": "",
          "type": "uint256"
        }
      ],
      "stateMutability": "view",
      "type": "function",
      "constant": true
    },
    {
      "inputs": [
        {
          "internalType": "address",
          "name": "erc721Address",
          "type": "address"
        },
        {
          "internalType": "uint256",
          "name": "from",
          "type": "uint256"
        },
        {
          "internalType": "uint256",
          "name": "size",
          "type": "uint256"
        }
      ],
      "name": "getTokenListings",
      "outputs": [
        {
          "components": [
            {
              "internalType": "uint256",
              "name": "tokenId",
              "type": "uint256"
            },
            {
              "internalType": "uint256",
              "name": "value",
              "type": "uint256"
            },
            {
              "internalType": "address",
              "name": "seller",
              "type": "address"
            },
            {
              "internalType": "uint256",
              "name": "expireTimestamp",
              "type": "uint256"
            }
          ],
          "internalType": "struct INFTKEYMarketplaceV2.Listing[]",
          "name": "listings",
          "type": "tuple[]"
        }
      ],
      "stateMutability": "view",
      "type": "function",
      "constant": true
    },
    {
      "inputs": [
        {
          "internalType": "address",
          "name": "erc721Address",
          "type": "address"
        },
        {
          "internalType": "uint256",
          "name": "tokenId",
          "type": "uint256"
        },
        {
          "internalType": "address",
          "name": "bidder",
          "type": "address"
        }
      ],
      "name": "getBidderTokenBid",
      "outputs": [
        {
          "components": [
            {
              "internalType": "uint256",
              "name": "tokenId",
              "type": "uint256"
            },
            {
              "internalType": "uint256",
              "name": "value",
              "type": "uint256"
            },
            {
              "internalType": "address",
              "name": "bidder",
              "type": "address"
            },
            {
              "internalType": "uint256",
              "name": "expireTimestamp",
              "type": "uint256"
            }
          ],
          "internalType": "struct INFTKEYMarketplaceV2.Bid",
          "name": "validBid",
          "type": "tuple"
        }
      ],
      "stateMutability": "view",
      "type": "function",
      "constant": true
    },
    {
      "inputs": [
        {
          "internalType": "address",
          "name": "erc721Address",
          "type": "address"
        },
        {
          "internalType": "uint256",
          "name": "tokenId",
          "type": "uint256"
        }
      ],
      "name": "getTokenBids",
      "outputs": [
        {
          "components": [
            {
              "internalType": "uint256",
              "name": "tokenId",
              "type": "uint256"
            },
            {
              "internalType": "uint256",
              "name": "value",
              "type": "uint256"
            },
            {
              "internalType": "address",
              "name": "bidder",
              "type": "address"
            },
            {
              "internalType": "uint256",
              "name": "expireTimestamp",
              "type": "uint256"
            }
          ],
          "internalType": "struct INFTKEYMarketplaceV2.Bid[]",
          "name": "bids",
          "type": "tuple[]"
        }
      ],
      "stateMutability": "view",
      "type": "function",
      "constant": true
    },
    {
      "inputs": [
        {
          "internalType": "address",
          "name": "erc721Address",
          "type": "address"
        },
        {
          "internalType": "uint256",
          "name": "tokenId",
          "type": "uint256"
        }
      ],
      "name": "getTokenHighestBid",
      "outputs": [
        {
          "components": [
            {
              "internalType": "uint256",
              "name": "tokenId",
              "type": "uint256"
            },
            {
              "internalType": "uint256",
              "name": "value",
              "type": "uint256"
            },
            {
              "internalType": "address",
              "name": "bidder",
              "type": "address"
            },
            {
              "internalType": "uint256",
              "name": "expireTimestamp",
              "type": "uint256"
            }
          ],
          "internalType": "struct INFTKEYMarketplaceV2.Bid",
          "name": "highestBid",
          "type": "tuple"
        }
      ],
      "stateMutability": "view",
      "type": "function",
      "constant": true
    },
    {
      "inputs": [
        {
          "internalType": "address",
          "name": "erc721Address",
          "type": "address"
        }
      ],
      "name": "numTokenWithBids",
      "outputs": [
        {
          "internalType": "uint256",
          "name": "",
          "type": "uint256"
        }
      ],
      "stateMutability": "view",
      "type": "function",
      "constant": true
    },
    {
      "inputs": [
        {
          "internalType": "address",
          "name": "erc721Address",
          "type": "address"
        },
        {
          "internalType": "uint256",
          "name": "from",
          "type": "uint256"
        },
        {
          "internalType": "uint256",
          "name": "size",
          "type": "uint256"
        }
      ],
      "name": "getTokenHighestBids",
      "outputs": [
        {
          "components": [
            {
              "internalType": "uint256",
              "name": "tokenId",
              "type": "uint256"
            },
            {
              "internalType": "uint256",
              "name": "value",
              "type": "uint256"
            },
            {
              "internalType": "address",
              "name": "bidder",
              "type": "address"
            },
            {
              "internalType": "uint256",
              "name": "expireTimestamp",
              "type": "uint256"
            }
          ],
          "internalType": "struct INFTKEYMarketplaceV2.Bid[]",
          "name": "highestBids",
          "type": "tuple[]"
        }
      ],
      "stateMutability": "view",
      "type": "function",
      "constant": true
    },
    {
      "inputs": [
        {
          "internalType": "address",
          "name": "erc721Address",
          "type": "address"
        },
        {
          "internalType": "address",
          "name": "bidder",
          "type": "address"
        },
        {
          "internalType": "uint256",
          "name": "from",
          "type": "uint256"
        },
        {
          "internalType": "uint256",
          "name": "size",
          "type": "uint256"
        }
      ],
      "name": "getBidderBids",
      "outputs": [
        {
          "components": [
            {
              "internalType": "uint256",
              "name": "tokenId",
              "type": "uint256"
            },
            {
              "internalType": "uint256",
              "name": "value",
              "type": "uint256"
            },
            {
              "internalType": "address",
              "name": "bidder",
              "type": "address"
            },
            {
              "internalType": "uint256",
              "name": "expireTimestamp",
              "type": "uint256"
            }
          ],
          "internalType": "struct INFTKEYMarketplaceV2.Bid[]",
          "name": "bidderBids",
          "type": "tuple[]"
        }
      ],
      "stateMutability": "view",
      "type": "function",
      "constant": true
    },
    {
      "inputs": [
        {
          "internalType": "bool",
          "name": "enabled",
          "type": "bool"
        }
      ],
      "name": "changeMarketplaceStatus",
      "outputs": [],
      "stateMutability": "nonpayable",
      "type": "function"
    },
    {
      "inputs": [],
      "name": "actionTimeOutRangeMin",
      "outputs": [
        {
          "internalType": "uint256",
          "name": "",
          "type": "uint256"
        }
      ],
      "stateMutability": "view",
      "type": "function",
      "constant": true
    },
    {
      "inputs": [],
      "name": "actionTimeOutRangeMax",
      "outputs": [
        {
          "internalType": "uint256",
          "name": "",
          "type": "uint256"
        }
      ],
      "stateMutability": "view",
      "type": "function",
      "constant": true
    },
    {
      "inputs": [],
      "name": "paymentToken",
      "outputs": [
        {
          "internalType": "address",
          "name": "",
          "type": "address"
        }
      ],
      "stateMutability": "view",
      "type": "function",
      "constant": true
    },
    {
      "inputs": [
        {
          "internalType": "uint256",
          "name": "timeInSec",
          "type": "uint256"
        }
      ],
      "name": "changeMinActionTimeLimit",
      "outputs": [],
      "stateMutability": "nonpayable",
      "type": "function"
    },
    {
      "inputs": [
        {
          "internalType": "uint256",
          "name": "timeInSec",
          "type": "uint256"
        }
      ],
      "name": "changeMaxActionTimeLimit",
      "outputs": [],
      "stateMutability": "nonpayable",
      "type": "function"
    },
    {
      "inputs": [],
      "name": "serviceFee",
      "outputs": [
        {
          "internalType": "uint8",
          "name": "",
          "type": "uint8"
        }
      ],
      "stateMutability": "view",
      "type": "function",
      "constant": true
    },
    {
      "inputs": [
        {
          "internalType": "uint8",
          "name": "serviceFeeFraction_",
          "type": "uint8"
        }
      ],
      "name": "changeSeriveFee",
      "outputs": [],
      "stateMutability": "nonpayable",
      "type": "function"
    }
  ],
  "bytecode": "0x60a0604052601460015560506002556005805461ffff19166114011790556107086006556301e133806007553480156200003857600080fd5b5060405162004433380380620044338339810160408190526200005b91620000cd565b62000066336200007d565b60016004556001600160a01b0316608052620000ff565b600080546001600160a01b038381166001600160a01b0319831681178455604051919092169283917f8be0079c531659141344cd1fd0a4f28419497f9722a3daafe3b4186f6b6457e09190a35050565b600060208284031215620000e057600080fd5b81516001600160a01b0381168114620000f857600080fd5b9392505050565b6080516142f56200013e600039600081816102f60152818161270c01528181612772015281816127e401528181612f7f015261305401526142f56000f3fe6080604052600436106101fe5760003560e01c8063861b69d61161011d578063cdea490d116100b0578063ee8ef34d1161007f578063f8ad6f6211610064578063f8ad6f6214610642578063f8e7b93614610662578063feb884061461068257600080fd5b8063ee8ef34d1461060c578063f2fde38b1461062257600080fd5b8063cdea490d1461058c578063cf6ac953146105ac578063eb3e87b9146105cc578063eb635ab8146105ec57600080fd5b806396f97164116100ec57806396f971641461050c578063a3c0b5f01461052c578063b43d901d1461054c578063b6be53ba1461056c57600080fd5b8063861b69d61461043a5780638abdf5aa146104975780638da5cb5b146104c157806390bc4e37146104ec57600080fd5b80634313e9bd1161019557806366c1e8bf1161016457806366c1e8bf146103dc57806368f8fc10146103fc5780636d0042b81461040f578063715018a61461042557600080fd5b80634313e9bd1461035a57806345105cb11461037a578063453dfc50146103a757806355c338aa146103bc57600080fd5b80632426fc24116101d15780632426fc241461029a5780632c20d1b4146102ba5780633013ce29146102e757806333549d3d1461033b57600080fd5b80630609d09514610203578063064a59d01461022557806319d334cb1461024d5780631f77a8201461026d575b600080fd5b34801561020f57600080fd5b5061022361021e366004613ca1565b6106a2565b005b34801561023157600080fd5b5060055460ff1660405190151581526020015b60405180910390f35b34801561025957600080fd5b50610223610268366004613ccd565b610807565b34801561027957600080fd5b5061028d610288366004613ca1565b610a99565b6040516102449190613d0e565b3480156102a657600080fd5b506102236102b5366004613d4f565b610c39565b3480156102c657600080fd5b506102da6102d5366004613d68565b610cbf565b6040516102449190613d9d565b3480156102f357600080fd5b507f00000000000000000000000000000000000000000000000000000000000000005b60405173ffffffffffffffffffffffffffffffffffffffff9091168152602001610244565b34801561034757600080fd5b506006545b604051908152602001610244565b34801561036657600080fd5b50610223610375366004613e22565b610e14565b34801561038657600080fd5b5061039a610395366004613d68565b611190565b6040516102449190613e5d565b3480156103b357600080fd5b5060075461034c565b3480156103c857600080fd5b506102236103d7366004613ccd565b611351565b3480156103e857600080fd5b506102da6103f7366004613ca1565b611491565b61022361040a366004613ca1565b611662565b34801561041b57600080fd5b5061034c60015481565b34801561043157600080fd5b50610223611aab565b34801561044657600080fd5b5061045a610455366004613ed6565b611b38565b60408051825173ffffffffffffffffffffffffffffffffffffffff9081168252602080850151908301529282015190921690820152606001610244565b3480156104a357600080fd5b50600554610100900460ff1660405160ff9091168152602001610244565b3480156104cd57600080fd5b5060005473ffffffffffffffffffffffffffffffffffffffff16610316565b3480156104f857600080fd5b5061028d610507366004613ef3565b611c5d565b34801561051857600080fd5b5061028d610527366004613ca1565b611d28565b34801561053857600080fd5b50610223610547366004613d4f565b611de9565b34801561055857600080fd5b50610223610567366004613e22565b611e6f565b34801561057857600080fd5b50610223610587366004613f43565b61217e565b34801561059857600080fd5b506102236105a7366004613d4f565b612230565b3480156105b857600080fd5b506102da6105c7366004613f60565b6122b6565b3480156105d857600080fd5b506102236105e7366004613fa6565b612412565b3480156105f857600080fd5b5061034c610607366004613ed6565b612946565b34801561061857600080fd5b5061034c60025481565b34801561062e57600080fd5b5061022361063d366004613ed6565b61297d565b34801561064e57600080fd5b5061022361065d366004613fee565b612aad565b34801561066e57600080fd5b5061034c61067d366004613ed6565b612bfb565b34801561068e57600080fd5b5061022361069d366004613ca1565b612c29565b73ffffffffffffffffffffffffffffffffffffffff8083166000908152600860209081526040808320858452600501825280832033808552600291820184529382902082516080810184528154815260018201549481019490945290810154909416908201819052600390930154606082015291146107a8576040517f08c379a000000000000000000000000000000000000000000000000000000000815260206004820152602b60248201527f54686973206164647265737320646f65736e2774206861766520626964206f6e60448201527f207468697320746f6b656e00000000000000000000000000000000000000000060648201526084015b60405180910390fd5b818373ffffffffffffffffffffffffffffffffffffffff167fef9d84bc41d1a54361c4bf46f5e11b7c90a3fcb4e604b1b24e0e35d0fa371604836040516107ef9190613d0e565b60405180910390a3610802838333612da7565b505050565b60005473ffffffffffffffffffffffffffffffffffffffff163314610888576040517f08c379a000000000000000000000000000000000000000000000000000000000815260206004820181905260248201527f4f776e61626c653a2063616c6c6572206973206e6f7420746865206f776e6572604482015260640161079f565b60025481111561091a576040517f08c379a000000000000000000000000000000000000000000000000000000000815260206004820152603660248201527f506c65617365207365742074686520726f79616c74792070657263656e74616e60448201527f67652062656c6f7720616c6c6f7765642072616e676500000000000000000000606482015260840161079f565b600061092584611b38565b6040015173ffffffffffffffffffffffffffffffffffffffff16146109cc576040517f08c379a000000000000000000000000000000000000000000000000000000000815260206004820152602860248201527f436f6c6c656374696f6e20726f79616c747920726563697069656e7420616c7260448201527f6561647920736574000000000000000000000000000000000000000000000000606482015260840161079f565b6040805160608101825273ffffffffffffffffffffffffffffffffffffffff8085168083526020808401868152338587019081528985166000818152600390945292879020955186549086167fffffffffffffffffffffffff00000000000000000000000000000000000000009182161787559151600187015551600290950180549590941694169390931790915591517fb6b61d78ac5372b51940cf3b322ea21839c456cade69acdf1b9fb9a6f79d6ff790610a8c9085815260200190565b60405180910390a3505050565b610ada60405180608001604052806000815260200160008152602001600073ffffffffffffffffffffffffffffffffffffffff168152602001600081525090565b5060408051608081018252828152600060208083018290528284018290526060830182905273ffffffffffffffffffffffffffffffffffffffff86168252600881528382208583526005019052918220909190610b3690612ef0565b905060005b81811015610c315773ffffffffffffffffffffffffffffffffffffffff851660009081526008602090815260408083208784526005019091528120610b809083612efa565b73ffffffffffffffffffffffffffffffffffffffff80881660009081526008602090815260408083208a84526005018252808320848616845260029081018352928190208151608081018352815481526001820154938101939093529283015490931692810192909252600301546060820152909150610c008782612f0d565b8015610c13575084602001518160200151115b15610c1c578094505b50508080610c2990614040565b915050610b3b565b505092915050565b60005473ffffffffffffffffffffffffffffffffffffffff163314610cba576040517f08c379a000000000000000000000000000000000000000000000000000000000815260206004820181905260248201527f4f776e61626c653a2063616c6c6572206973206e6f7420746865206f776e6572604482015260640161079f565b600655565b60606000610ccc85612946565b90508084108015610cdd5750600083115b15610e0c578281610cee8287614079565b1115610d0157610cfe8583614091565b90505b8067ffffffffffffffff811115610d1a57610d1a6140a8565b604051908082528060200260200182016040528015610d8c57816020015b610d7960405180608001604052806000815260200160008152602001600073ffffffffffffffffffffffffffffffffffffffff168152602001600081525090565b815260200190600190039081610d385790505b50925060005b81811015610e0957610dd987610288610dab8985614079565b73ffffffffffffffffffffffffffffffffffffffff8b16600090815260086020526040902060030190612efa565b848281518110610deb57610deb6140d7565b60200260200101819052508080610e0190614040565b915050610d92565b50505b509392505050565b60055460ff16610e80576040517f08c379a000000000000000000000000000000000000000000000000000000000815260206004820152601f60248201527f4c697374696e6720616e642062696420617265206e6f7420656e61626c656400604482015260640161079f565b6006548190610e8f4283614091565b1015610f1c576040517f08c379a0000000000000000000000000000000000000000000000000000000008152602060048201526024808201527f506c6561736520656e7465722061206c6f6e67657220706572696f64206f662060448201527f74696d6500000000000000000000000000000000000000000000000000000000606482015260840161079f565b600754610f294283614091565b1115610fb7576040517f08c379a000000000000000000000000000000000000000000000000000000000815260206004820152602560248201527f506c6561736520656e74657220612073686f7274657220706572696f64206f6660448201527f2074696d65000000000000000000000000000000000000000000000000000000606482015260840161079f565b6040805160808101825285815260208101859052339181019190915260608101839052610fe48682612f0d565b61104a576040517f08c379a000000000000000000000000000000000000000000000000000000000815260206004820152601060248201527f426964206973206e6f742076616c696400000000000000000000000000000000604482015260640161079f565b73ffffffffffffffffffffffffffffffffffffffff8616600090815260086020526040902061107c9060030186613100565b5073ffffffffffffffffffffffffffffffffffffffff8616600090815260086020908152604080832088845260050190915290206110ba903361310c565b5073ffffffffffffffffffffffffffffffffffffffff86811660008181526008602090815260408083208a845260050182528083203384526002908101835292819020865181559186015160018301558581015192820180547fffffffffffffffffffffffff0000000000000000000000000000000000000000169390951692909217909355606084015160039093019290925590518691907fc547e24584f4dd2da70009d5141bf4344b59a0ce26cd8f7c5d5a28151a11f21990611180908590613d0e565b60405180910390a3505050505050565b6060600061119d85612bfb565b905080841080156111ae5750600083115b15610e0c5782816111bf8287614079565b11156111d2576111cf8583614091565b90505b8067ffffffffffffffff8111156111eb576111eb6140a8565b60405190808252806020026020018201604052801561125d57816020015b61124a60405180608001604052806000815260200160008152602001600073ffffffffffffffffffffffffffffffffffffffff168152602001600081525090565b8152602001906001900390816112095790505b50925060005b81811015610e095760006112a561127a8884614079565b73ffffffffffffffffffffffffffffffffffffffff8a16600090815260086020526040902090612efa565b73ffffffffffffffffffffffffffffffffffffffff808a16600090815260086020908152604080832085845260029081018352928190208151608081018352815481526001820154938101939093529283015490931692810192909252600301546060820152909150611318898261312e565b1561133c5780868481518110611330576113306140d7565b60200260200101819052505b5050808061134990614040565b915050611263565b6002548111156113e3576040517f08c379a000000000000000000000000000000000000000000000000000000000815260206004820152603660248201527f506c65617365207365742074686520726f79616c74792070657263656e74616e60448201527f67652062656c6f7720616c6c6f7765642072616e676500000000000000000000606482015260840161079f565b6113ec83611b38565b5173ffffffffffffffffffffffffffffffffffffffff1633146109cc576040517f08c379a000000000000000000000000000000000000000000000000000000000815260206004820152603760248201527f4f6e6c792045524337323120726f79616c747920726563697069656e7420697360448201527f20616c6c6f77656420746f2073657420526f79616c7479000000000000000000606482015260840161079f565b73ffffffffffffffffffffffffffffffffffffffff821660009081526008602090815260408083208484526005019091528120606091906114d190612ef0565b90508067ffffffffffffffff8111156114ec576114ec6140a8565b60405190808252806020026020018201604052801561155e57816020015b61154b60405180608001604052806000815260200160008152602001600073ffffffffffffffffffffffffffffffffffffffff168152602001600081525090565b81526020019060019003908161150a5790505b50915060005b81811015610c315773ffffffffffffffffffffffffffffffffffffffff8516600090815260086020908152604080832087845260050190915281206115a99083612efa565b73ffffffffffffffffffffffffffffffffffffffff80881660009081526008602090815260408083208a845260050182528083208486168452600290810183529281902081516080810183528154815260018201549381019390935292830154909316928101929092526003015460608201529091506116298782612f0d565b1561164d5780858481518110611641576116416140d7565b60200260200101819052505b5050808061165a90614040565b915050611564565b600260045414156116cf576040517f08c379a000000000000000000000000000000000000000000000000000000000815260206004820152601f60248201527f5265656e7472616e637947756172643a207265656e7472616e742063616c6c00604482015260640161079f565b6002600481905573ffffffffffffffffffffffffffffffffffffffff8084166000908152600860209081526040808320868452850182529182902082516080810184528154815260018201549281019290925293840154909216908201526003909101546060820152611742838261312e565b6117a8576040517f08c379a000000000000000000000000000000000000000000000000000000000815260206004820152601560248201527f546f6b656e206973206e6f7420666f722073616c650000000000000000000000604482015260640161079f565b6117b383833361316c565b15611840576040517f08c379a000000000000000000000000000000000000000000000000000000000815260206004820152602560248201527f546f6b656e206f776e65722063616e277420627579207468656972206f776e2060448201527f746f6b656e000000000000000000000000000000000000000000000000000000606482015260840161079f565b80602001513410156118d4576040517f08c379a000000000000000000000000000000000000000000000000000000000815260206004820152602260248201527f5468652076616c75652073656e642069732062656c6f772073616c652070726960448201527f6365000000000000000000000000000000000000000000000000000000000000606482015260840161079f565b6000806118e585846020015161326d565b9150915061190d83604001518284346118fe9190614091565b6119089190614091565b6132f2565b61193561192f60005473ffffffffffffffffffffffffffffffffffffffff1690565b836132f2565b600061194086611b38565b51905073ffffffffffffffffffffffffffffffffffffffff8116158015906119685750600082115b156119775761197781836132f2565b6040805185518152602080870151908201528582015173ffffffffffffffffffffffffffffffffffffffff90811682840152606080880151908301526080820186905260a08201859052915133928892908a16917f50a3cf2b1df7bd2994e752563ce6f85769fb50da66bbb9a9912d2d6066a6b4da9181900360c00190a460408481015190517f42842e0e00000000000000000000000000000000000000000000000000000000815273ffffffffffffffffffffffffffffffffffffffff918216600482015233602482015260448101879052908716906342842e0e90606401600060405180830381600087803b158015611a7157600080fd5b505af1158015611a85573d6000803e3d6000fd5b50505050611a93868661344c565b611a9e868633612da7565b5050600160045550505050565b60005473ffffffffffffffffffffffffffffffffffffffff163314611b2c576040517f08c379a000000000000000000000000000000000000000000000000000000000815260206004820181905260248201527f4f776e61626c653a2063616c6c6572206973206e6f7420746865206f776e6572604482015260640161079f565b611b366000613500565b565b604080516060810182526000808252602082018190529181019190915273ffffffffffffffffffffffffffffffffffffffff8281166000908152600360205260409020600201541615611bd8575073ffffffffffffffffffffffffffffffffffffffff9081166000908152600360209081526040918290208251606081018452815485168152600182015492810192909252600201549092169082015290565b6000611be383613575565b905073ffffffffffffffffffffffffffffffffffffffff811615611c39576040805160608101825273ffffffffffffffffffffffffffffffffffffffff9092168252600154602083015260009082015292915050565b50506040805160608101825260008082526020820181905291810191909152919050565b611c9e60405180608001604052806000815260200160008152602001600073ffffffffffffffffffffffffffffffffffffffff168152602001600081525090565b73ffffffffffffffffffffffffffffffffffffffff80851660009081526008602090815260408083208784526005018252808320868516845260029081018352928190208151608081018352815481526001820154938101939093529283015490931692810192909252600301546060820152611d1b8582612f0d565b15610e0c57949350505050565b611d6960405180608001604052806000815260200160008152602001600073ffffffffffffffffffffffffffffffffffffffff168152602001600081525090565b73ffffffffffffffffffffffffffffffffffffffff808416600090815260086020908152604080832086845260029081018352928190208151608081018352815481526001820154938101939093529283015490931692810192909252600301546060820152611dd9848261312e565b15611de2578091505b5092915050565b60005473ffffffffffffffffffffffffffffffffffffffff163314611e6a576040517f08c379a000000000000000000000000000000000000000000000000000000000815260206004820181905260248201527f4f776e61626c653a2063616c6c6572206973206e6f7420746865206f776e6572604482015260640161079f565b600755565b60055460ff16611edb576040517f08c379a000000000000000000000000000000000000000000000000000000000815260206004820152601f60248201527f4c697374696e6720616e642062696420617265206e6f7420656e61626c656400604482015260640161079f565b6006548190611eea4283614091565b1015611f77576040517f08c379a0000000000000000000000000000000000000000000000000000000008152602060048201526024808201527f506c6561736520656e7465722061206c6f6e67657220706572696f64206f662060448201527f74696d6500000000000000000000000000000000000000000000000000000000606482015260840161079f565b600754611f844283614091565b1115612012576040517f08c379a000000000000000000000000000000000000000000000000000000000815260206004820152602560248201527f506c6561736520656e74657220612073686f7274657220706572696f64206f6660448201527f2074696d65000000000000000000000000000000000000000000000000000000606482015260840161079f565b604080516080810182528581526020810185905233918101919091526060810183905261203f868261312e565b6120a5576040517f08c379a000000000000000000000000000000000000000000000000000000000815260206004820152601460248201527f4c697374696e67206973206e6f742076616c6964000000000000000000000000604482015260640161079f565b73ffffffffffffffffffffffffffffffffffffffff86811660008181526008602081815260408084208b855260028082018452828620895181558985015160018201559289015190830180547fffffffffffffffffffffffff000000000000000000000000000000000000000016919098161790965560608701516003909101559290915290526121369086613100565b50848673ffffffffffffffffffffffffffffffffffffffff167ffc8bd63d1c4480fdf7501f95b3dd0ba53542a02abbab92c0f579468341741abd836040516111809190613d0e565b60005473ffffffffffffffffffffffffffffffffffffffff1633146121ff576040517f08c379a000000000000000000000000000000000000000000000000000000000815260206004820181905260248201527f4f776e61626c653a2063616c6c6572206973206e6f7420746865206f776e6572604482015260640161079f565b600580547fffffffffffffffffffffffffffffffffffffffffffffffffffffffffffffff0016911515919091179055565b60005473ffffffffffffffffffffffffffffffffffffffff1633146122b1576040517f08c379a000000000000000000000000000000000000000000000000000000000815260206004820181905260248201527f4f776e61626c653a2063616c6c6572206973206e6f7420746865206f776e6572604482015260640161079f565b600255565b606060006122c386612946565b905080841080156122d45750600083115b156124095782816122e58287614079565b11156122f8576122f58583614091565b90505b8067ffffffffffffffff811115612311576123116140a8565b60405190808252806020026020018201604052801561238357816020015b61237060405180608001604052806000815260200160008152602001600073ffffffffffffffffffffffffffffffffffffffff168152602001600081525090565b81526020019060019003908161232f5790505b50925060005b81811015612406576123d6886123d06123a28985614079565b73ffffffffffffffffffffffffffffffffffffffff8c16600090815260086020526040902060030190612efa565b89611c5d565b8482815181106123e8576123e86140d7565b602002602001018190525080806123fe90614040565b915050612389565b50505b50949350505050565b6002600454141561247f576040517f08c379a000000000000000000000000000000000000000000000000000000000815260206004820152601f60248201527f5265656e7472616e637947756172643a207265656e7472616e742063616c6c00604482015260640161079f565b600260045561248f84843361316c565b61251b576040517f08c379a000000000000000000000000000000000000000000000000000000000815260206004820152602860248201527f4f6e6c7920746f6b656e206f776e65722063616e20616363657074206269642060448201527f6f6620746f6b656e000000000000000000000000000000000000000000000000606482015260840161079f565b6125258484613617565b80612535575061253584336136ff565b6125c1576040517f08c379a000000000000000000000000000000000000000000000000000000000815260206004820152603560248201527f54686520746f6b656e206973206e6f7420617070726f76656420746f2074726160448201527f6e736665722062792074686520636f6e74726163740000000000000000000000606482015260840161079f565b60006125ce858585611c5d565b8051909150841480156125e45750818160200151145b801561261f57508273ffffffffffffffffffffffffffffffffffffffff16816040015173ffffffffffffffffffffffffffffffffffffffff16145b6126ab576040517f08c379a000000000000000000000000000000000000000000000000000000000815260206004820152602660248201527f5468697320746f6b656e20646f65736e277420686176652061206d617463686960448201527f6e67206269640000000000000000000000000000000000000000000000000000606482015260840161079f565b60006126b686611b38565b6000015190506000806126cd88856020015161326d565b91509150612734846040015133838588602001516126eb9190614091565b6126f59190614091565b73ffffffffffffffffffffffffffffffffffffffff7f0000000000000000000000000000000000000000000000000000000000000000169291906137b1565b61279a846040015161275b60005473ffffffffffffffffffffffffffffffffffffffff1690565b73ffffffffffffffffffffffffffffffffffffffff7f0000000000000000000000000000000000000000000000000000000000000000169190856137b1565b73ffffffffffffffffffffffffffffffffffffffff8316158015906127bf5750600081115b1561280c57604084015161280c9073ffffffffffffffffffffffffffffffffffffffff7f0000000000000000000000000000000000000000000000000000000000000000169085846137b1565b60408481015190517f42842e0e00000000000000000000000000000000000000000000000000000000815233600482015273ffffffffffffffffffffffffffffffffffffffff918216602482015260448101899052908916906342842e0e90606401600060405180830381600087803b15801561288857600080fd5b505af115801561289c573d6000803e3d6000fd5b50506040805187518152602080890151908201528782015173ffffffffffffffffffffffffffffffffffffffff908116828401526060808a0151908301526080820187905260a0820186905291513394508b9350918c16917fcc8a6de82515ca1ae870ff05651038b858e8bcd1b5143c342987b6dc3c3434539181900360c00190a4612928888861344c565b61293788888660400151612da7565b50506001600455505050505050565b73ffffffffffffffffffffffffffffffffffffffff8116600090815260086020526040812061297790600301612ef0565b92915050565b60005473ffffffffffffffffffffffffffffffffffffffff1633146129fe576040517f08c379a000000000000000000000000000000000000000000000000000000000815260206004820181905260248201527f4f776e61626c653a2063616c6c6572206973206e6f7420746865206f776e6572604482015260640161079f565b73ffffffffffffffffffffffffffffffffffffffff8116612aa1576040517f08c379a000000000000000000000000000000000000000000000000000000000815260206004820152602660248201527f4f776e61626c653a206e6577206f776e657220697320746865207a65726f206160448201527f6464726573730000000000000000000000000000000000000000000000000000606482015260840161079f565b612aaa81613500565b50565b60005473ffffffffffffffffffffffffffffffffffffffff163314612b2e576040517f08c379a000000000000000000000000000000000000000000000000000000000815260206004820181905260248201527f4f776e61626c653a2063616c6c6572206973206e6f7420746865206f776e6572604482015260640161079f565b60198160ff161115612bc2576040517f08c379a000000000000000000000000000000000000000000000000000000000815260206004820152602b60248201527f417474656d707420746f207365742070657263656e746167652068696768657260448201527f207468616e20322e35252e000000000000000000000000000000000000000000606482015260840161079f565b6005805460ff909216610100027fffffffffffffffffffffffffffffffffffffffffffffffffffffffffffff00ff909216919091179055565b73ffffffffffffffffffffffffffffffffffffffff8116600090815260086020526040812061297790612ef0565b73ffffffffffffffffffffffffffffffffffffffff828116600090815260086020908152604080832085845260029081019092529091200154163314612cf1576040517f08c379a000000000000000000000000000000000000000000000000000000000815260206004820152602260248201527f4f6e6c7920746f6b656e2073656c6c65722063616e2064656c69737420746f6b60448201527f656e000000000000000000000000000000000000000000000000000000000000606482015260840161079f565b73ffffffffffffffffffffffffffffffffffffffff821660008181526008602090815260408083208584526002019091529081902090518392917f835a0a426c94e53ab00dd6cf617ba68d1fa6c9162ef7a036b80be930c9a32c5391612d9191908154815260018201546020820152600282015473ffffffffffffffffffffffffffffffffffffffff166040820152600390910154606082015260800190565b60405180910390a3612da3828261344c565b5050565b73ffffffffffffffffffffffffffffffffffffffff831660009081526008602090815260408083208584526005019091529020612de49082613846565b156108025773ffffffffffffffffffffffffffffffffffffffff80841660009081526008602090815260408083208684526005018083528184209486168452600280860184529184208481556001810185905591820180547fffffffffffffffffffffffff000000000000000000000000000000000000000016905560039091018390559185905252612e779082613875565b5073ffffffffffffffffffffffffffffffffffffffff831660009081526008602090815260408083208584526005019091529020612eb490612ef0565b6108025773ffffffffffffffffffffffffffffffffffffffff83166000908152600860205260409020612eea9060030183613897565b50505050565b6000612977825490565b6000612f0683836138a3565b9392505050565b6000612f22838360000151846040015161316c565b158015612ffe5750602082015160408084015190517fdd62ed3e00000000000000000000000000000000000000000000000000000000815273ffffffffffffffffffffffffffffffffffffffff91821660048201523060248201527f00000000000000000000000000000000000000000000000000000000000000009091169063dd62ed3e9060440160206040518083038186803b158015612fc357600080fd5b505afa158015612fd7573d6000803e3d6000fd5b505050506040513d601f19601f82011682018060405250810190612ffb9190614106565b10155b80156130d35750602082015160408084015190517f70a0823100000000000000000000000000000000000000000000000000000000815273ffffffffffffffffffffffffffffffffffffffff91821660048201527f0000000000000000000000000000000000000000000000000000000000000000909116906370a082319060240160206040518083038186803b15801561309857600080fd5b505afa1580156130ac573d6000803e3d6000fd5b505050506040513d601f19601f820116820180604052508101906130d09190614106565b10155b80156130e3575060008260200151115b80156130f25750428260600151115b156129775750600192915050565b6000612f0683836138cd565b6000612f068373ffffffffffffffffffffffffffffffffffffffff84166138cd565b6000613143838360000151846040015161316c565b80156130d35750613158838360000151613617565b806130d357506130d38383604001516136ff565b6040517f6352211e00000000000000000000000000000000000000000000000000000000815260048101839052600090849073ffffffffffffffffffffffffffffffffffffffff821690636352211e9060240160206040518083038186803b1580156131d757600080fd5b505afa925050508015613225575060408051601f3d9081017fffffffffffffffffffffffffffffffffffffffffffffffffffffffffffffffe01682019092526132229181019061411f565b60015b613233576000915050612f06565b8373ffffffffffffffffffffffffffffffffffffffff168173ffffffffffffffffffffffffffffffffffffffff1614925050509392505050565b600080600061327b85611b38565b60200151600554909150600090829061329e90610100900460ff166103e861413c565b61ffff166132ac9190614079565b60055490915081906132c690610100900460ff1687614162565b6132d0919061419f565b9350806132dd8387614162565b6132e7919061419f565b925050509250929050565b8047101561335c576040517f08c379a000000000000000000000000000000000000000000000000000000000815260206004820152601d60248201527f416464726573733a20696e73756666696369656e742062616c616e6365000000604482015260640161079f565b60008273ffffffffffffffffffffffffffffffffffffffff168260405160006040518083038185875af1925050503d80600081146133b6576040519150601f19603f3d011682016040523d82523d6000602084013e6133bb565b606091505b5050905080610802576040517f08c379a000000000000000000000000000000000000000000000000000000000815260206004820152603a60248201527f416464726573733a20756e61626c6520746f2073656e642076616c75652c207260448201527f6563697069656e74206d61792068617665207265766572746564000000000000606482015260840161079f565b73ffffffffffffffffffffffffffffffffffffffff8216600090815260086020526040902061347b908261391c565b15612da35773ffffffffffffffffffffffffffffffffffffffff82166000818152600860208181526040808420868552600280820184529185208581556001810186905591820180547fffffffffffffffffffffffff000000000000000000000000000000000000000016905560039091018490559390925290526108029082613897565b6000805473ffffffffffffffffffffffffffffffffffffffff8381167fffffffffffffffffffffffff0000000000000000000000000000000000000000831681178455604051919092169283917f8be0079c531659141344cd1fd0a4f28419497f9722a3daafe3b4186f6b6457e09190a35050565b60008173ffffffffffffffffffffffffffffffffffffffff16638da5cb5b6040518163ffffffff1660e01b815260040160206040518083038186803b1580156135bd57600080fd5b505afa92505050801561360b575060408051601f3d9081017fffffffffffffffffffffffffffffffffffffffffffffffffffffffffffffffe01682019092526136089181019061411f565b60015b61297757506000919050565b6040517f081812fc00000000000000000000000000000000000000000000000000000000815260048101829052600090839073ffffffffffffffffffffffffffffffffffffffff82169063081812fc9060240160206040518083038186803b15801561368257600080fd5b505afa9250505080156136d0575060408051601f3d9081017fffffffffffffffffffffffffffffffffffffffffffffffffffffffffffffffe01682019092526136cd9181019061411f565b60015b6136de576000915050612977565b73ffffffffffffffffffffffffffffffffffffffff16301491506129779050565b6040517fe985e9c500000000000000000000000000000000000000000000000000000000815273ffffffffffffffffffffffffffffffffffffffff8281166004830152306024830152600091849182169063e985e9c59060440160206040518083038186803b15801561377157600080fd5b505afa158015613785573d6000803e3d6000fd5b505050506040513d601f19601f820116820180604052508101906137a991906141da565b949350505050565b6040805173ffffffffffffffffffffffffffffffffffffffff85811660248301528416604482015260648082018490528251808303909101815260849091019091526020810180517bffffffffffffffffffffffffffffffffffffffffffffffffffffffff167f23b872dd00000000000000000000000000000000000000000000000000000000179052612eea908590613934565b73ffffffffffffffffffffffffffffffffffffffff811660009081526001830160205260408120541515612f06565b6000612f068373ffffffffffffffffffffffffffffffffffffffff8416613a40565b6000612f068383613a40565b60008260000182815481106138ba576138ba6140d7565b9060005260206000200154905092915050565b600081815260018301602052604081205461391457508154600181810184556000848152602080822090930184905584548482528286019093526040902091909155612977565b506000612977565b60008181526001830160205260408120541515612f06565b6000613996826040518060400160405280602081526020017f5361666545524332303a206c6f772d6c6576656c2063616c6c206661696c65648152508573ffffffffffffffffffffffffffffffffffffffff16613b339092919063ffffffff16565b80519091501561080257808060200190518101906139b491906141da565b610802576040517f08c379a000000000000000000000000000000000000000000000000000000000815260206004820152602a60248201527f5361666545524332303a204552433230206f7065726174696f6e20646964206e60448201527f6f74207375636365656400000000000000000000000000000000000000000000606482015260840161079f565b60008181526001830160205260408120548015613b29576000613a64600183614091565b8554909150600090613a7890600190614091565b9050818114613add576000866000018281548110613a9857613a986140d7565b9060005260206000200154905080876000018481548110613abb57613abb6140d7565b6000918252602080832090910192909255918252600188019052604090208390555b8554869080613aee57613aee6141f7565b600190038181906000526020600020016000905590558560010160008681526020019081526020016000206000905560019350505050612977565b6000915050612977565b60606137a9848460008585843b613ba6576040517f08c379a000000000000000000000000000000000000000000000000000000000815260206004820152601d60248201527f416464726573733a2063616c6c20746f206e6f6e2d636f6e7472616374000000604482015260640161079f565b6000808673ffffffffffffffffffffffffffffffffffffffff168587604051613bcf9190614252565b60006040518083038185875af1925050503d8060008114613c0c576040519150601f19603f3d011682016040523d82523d6000602084013e613c11565b606091505b5091509150613c21828286613c2c565b979650505050505050565b60608315613c3b575081612f06565b825115613c4b5782518084602001fd5b816040517f08c379a000000000000000000000000000000000000000000000000000000000815260040161079f919061426e565b73ffffffffffffffffffffffffffffffffffffffff81168114612aaa57600080fd5b60008060408385031215613cb457600080fd5b8235613cbf81613c7f565b946020939093013593505050565b600080600060608486031215613ce257600080fd5b8335613ced81613c7f565b92506020840135613cfd81613c7f565b929592945050506040919091013590565b815181526020808301519082015260408083015173ffffffffffffffffffffffffffffffffffffffff16908201526060808301519082015260808101612977565b600060208284031215613d6157600080fd5b5035919050565b600080600060608486031215613d7d57600080fd5b8335613d8881613c7f565b95602085013595506040909401359392505050565b6020808252825182820181905260009190848201906040850190845b81811015613e1657613e03838551805182526020810151602083015273ffffffffffffffffffffffffffffffffffffffff6040820151166040830152606081015160608301525050565b9284019260809290920191600101613db9565b50909695505050505050565b60008060008060808587031215613e3857600080fd5b8435613e4381613c7f565b966020860135965060408601359560600135945092505050565b6020808252825182820181905260009190848201906040850190845b81811015613e1657613ec3838551805182526020810151602083015273ffffffffffffffffffffffffffffffffffffffff6040820151166040830152606081015160608301525050565b9284019260809290920191600101613e79565b600060208284031215613ee857600080fd5b8135612f0681613c7f565b600080600060608486031215613f0857600080fd5b8335613f1381613c7f565b9250602084013591506040840135613f2a81613c7f565b809150509250925092565b8015158114612aaa57600080fd5b600060208284031215613f5557600080fd5b8135612f0681613f35565b60008060008060808587031215613f7657600080fd5b8435613f8181613c7f565b93506020850135613f9181613c7f565b93969395505050506040820135916060013590565b60008060008060808587031215613fbc57600080fd5b8435613fc781613c7f565b9350602085013592506040850135613fde81613c7f565b9396929550929360600135925050565b60006020828403121561400057600080fd5b813560ff81168114612f0657600080fd5b7f4e487b7100000000000000000000000000000000000000000000000000000000600052601160045260246000fd5b60007fffffffffffffffffffffffffffffffffffffffffffffffffffffffffffffffff82141561407257614072614011565b5060010190565b6000821982111561408c5761408c614011565b500190565b6000828210156140a3576140a3614011565b500390565b7f4e487b7100000000000000000000000000000000000000000000000000000000600052604160045260246000fd5b7f4e487b7100000000000000000000000000000000000000000000000000000000600052603260045260246000fd5b60006020828403121561411857600080fd5b5051919050565b60006020828403121561413157600080fd5b8151612f0681613c7f565b600061ffff80831681851680830382111561415957614159614011565b01949350505050565b6000817fffffffffffffffffffffffffffffffffffffffffffffffffffffffffffffffff048311821515161561419a5761419a614011565b500290565b6000826141d5577f4e487b7100000000000000000000000000000000000000000000000000000000600052601260045260246000fd5b500490565b6000602082840312156141ec57600080fd5b8151612f0681613f35565b7f4e487b7100000000000000000000000000000000000000000000000000000000600052603160045260246000fd5b60005b83811015614241578181015183820152602001614229565b83811115612eea5750506000910152565b60008251614264818460208701614226565b9190910192915050565b602081526000825180602084015261428d816040850160208701614226565b601f017fffffffffffffffffffffffffffffffffffffffffffffffffffffffffffffffe016919091016040019291505056fea2646970667358221220630620d8c6854c447666b4d5d0b54b67c9f542fdad4fcb8bcea08316f323b73d64736f6c63430008090033",
  "immutableReferences": {
    "1757": [
      {
        "length": 32,
        "start": 758
      },
      {
        "length": 32,
        "start": 9996
      },
      {
        "length": 32,
        "start": 10098
      },
      {
        "length": 32,
        "start": 10212
      },
      {
        "length": 32,
        "start": 12159
      },
      {
        "length": 32,
        "start": 12372
      }
    ]
  },
  "source": "// SPDX-License-Identifier: AGPL-3.0-or-later\n\npragma solidity =0.8.9;\npragma abicoder v2;\n\nimport \"@openzeppelin/contracts/access/Ownable.sol\";\nimport \"@openzeppelin/contracts/utils/Address.sol\";\nimport \"@openzeppelin/contracts/utils/structs/EnumerableSet.sol\";\nimport \"@openzeppelin/contracts/security/ReentrancyGuard.sol\";\nimport \"@openzeppelin/contracts/token/ERC721/IERC721.sol\";\nimport \"@openzeppelin/contracts/token/ERC20/utils/SafeERC20.sol\";\nimport \"./interface/INFTKEYMarketplaceV2.sol\";\nimport \"./NFTKEYMarketplaceRoyalty.sol\";\n\n/**\n * @title NFTKEY Marketplace contract V2\n * Note: Payment tokens usually is the chain native coin's wrapped token, e.g. WETH, WBNB\n */\ncontract NFTKEYMarketplaceV2 is\n    INFTKEYMarketplaceV2,\n    Ownable,\n    NFTKEYMarketplaceRoyalty,\n    ReentrancyGuard\n{\n    using Address for address;\n    using EnumerableSet for EnumerableSet.UintSet;\n    using EnumerableSet for EnumerableSet.AddressSet;\n    using SafeERC20 for IERC20;\n\n    constructor(address _paymentTokenAddress) {\n        _paymentToken = IERC20(_paymentTokenAddress);\n    }\n\n    IERC20 private immutable _paymentToken;\n\n    bool private _isTradingEnabled = true;\n    uint8 private _serviceFeeFraction = 20;\n    uint256 private _actionTimeOutRangeMin = 1800; // 30 mins\n    uint256 private _actionTimeOutRangeMax = 31536000; // One year - This can extend by owner is contract is working smoothly\n\n    mapping(address => ERC721Market) private _erc721Market;\n\n    /**\n     * @dev only if listing and bid is enabled\n     * This is to help contract migration in case of upgrading contract\n     */\n    modifier onlyTradingOpen() {\n        require(_isTradingEnabled, \"Listing and bid are not enabled\");\n        _;\n    }\n\n    /**\n     * @dev only if the entered timestamp is within the allowed range\n     * This helps to not list or bid for too short or too long period of time\n     */\n    modifier onlyAllowedExpireTimestamp(uint256 expireTimestamp) {\n        require(\n            expireTimestamp - block.timestamp >= _actionTimeOutRangeMin,\n            \"Please enter a longer period of time\"\n        );\n        require(\n            expireTimestamp - block.timestamp <= _actionTimeOutRangeMax,\n            \"Please enter a shorter period of time\"\n        );\n        _;\n    }\n\n    /**\n     * @dev See {INFTKEYMarketplaceV2-listToken}.\n     * The timestamp set needs to be in the allowed range\n     * Listing must be valid\n     */\n    function listToken(\n        address erc721Address,\n        uint256 tokenId,\n        uint256 value,\n        uint256 expireTimestamp\n    )\n        external\n        override\n        onlyTradingOpen\n        onlyAllowedExpireTimestamp(expireTimestamp)\n    {\n        Listing memory listing = Listing({\n            tokenId: tokenId,\n            value: value,\n            seller: msg.sender,\n            expireTimestamp: expireTimestamp\n        });\n\n        require(\n            _isListingValid(erc721Address, listing),\n            \"Listing is not valid\"\n        );\n\n        _erc721Market[erc721Address].listings[tokenId] = listing;\n        _erc721Market[erc721Address].tokenIdWithListing.add(tokenId);\n\n        emit TokenListed(erc721Address, tokenId, listing);\n    }\n\n    /**\n     * @dev See {INFTKEYMarketplaceV2-delistToken}.\n     * msg.sender must be the seller of the listing record\n     */\n    function delistToken(address erc721Address, uint256 tokenId)\n        external\n        override\n    {\n        require(\n            _erc721Market[erc721Address].listings[tokenId].seller == msg.sender,\n            \"Only token seller can delist token\"\n        );\n\n        emit TokenDelisted(\n            erc721Address,\n            tokenId,\n            _erc721Market[erc721Address].listings[tokenId]\n        );\n\n        _delistToken(erc721Address, tokenId);\n    }\n\n    /**\n     * @dev See {INFTKEYMarketplaceV2-buyToken}.\n     * Must have a valid listing\n     * msg.sender must not the owner of token\n     * msg.value must be at least sell price plus fees\n     */\n    function buyToken(address erc721Address, uint256 tokenId)\n        external\n        payable\n        override\n        nonReentrant\n    {\n        Listing memory listing = _erc721Market[erc721Address].listings[tokenId];\n        require(\n            _isListingValid(erc721Address, listing),\n            \"Token is not for sale\"\n        );\n        require(\n            !_isTokenOwner(erc721Address, tokenId, msg.sender),\n            \"Token owner can't buy their own token\"\n        );\n        require(\n            msg.value >= listing.value,\n            \"The value send is below sale price\"\n        );\n\n        (uint256 _serviceFee, uint256 _royaltyFee) = _calculateFees(\n            erc721Address,\n            listing.value\n        );\n\n        Address.sendValue(\n            payable(listing.seller),\n            msg.value - _serviceFee - _royaltyFee\n        );\n        Address.sendValue(payable(owner()), _serviceFee);\n\n        address _royaltyRecipient = royalty(erc721Address).recipient;\n        if (_royaltyRecipient != address(0) && _royaltyFee > 0) {\n            Address.sendValue(payable(_royaltyRecipient), _royaltyFee);\n        }\n\n        // Send token to buyer\n        emit TokenBought({\n            erc721Address: erc721Address,\n            tokenId: tokenId,\n            buyer: msg.sender,\n            listing: listing,\n            serviceFee: _serviceFee,\n            royaltyFee: _royaltyFee\n        });\n\n        IERC721(erc721Address).safeTransferFrom(\n            listing.seller,\n            msg.sender,\n            tokenId\n        );\n\n        // Remove token listing\n        _delistToken(erc721Address, tokenId);\n        _removeBidOfBidder(erc721Address, tokenId, msg.sender);\n    }\n\n    /**\n     * @dev See {INFTKEYMarketplaceV2-enterBidForToken}.\n     * People can only enter bid if bid is valid\n     */\n    function enterBidForToken(\n        address erc721Address,\n        uint256 tokenId,\n        uint256 value,\n        uint256 expireTimestamp\n    )\n        external\n        override\n        onlyTradingOpen\n        onlyAllowedExpireTimestamp(expireTimestamp)\n    {\n        Bid memory bid = Bid(tokenId, value, msg.sender, expireTimestamp);\n\n        require(_isBidValid(erc721Address, bid), \"Bid is not valid\");\n\n        _erc721Market[erc721Address].tokenIdWithBid.add(tokenId);\n        _erc721Market[erc721Address].bids[tokenId].bidders.add(msg.sender);\n        _erc721Market[erc721Address].bids[tokenId].bids[msg.sender] = bid;\n\n        emit TokenBidEntered(erc721Address, tokenId, bid);\n    }\n\n    /**\n     * @dev See {INFTKEYMarketplaceV2-withdrawBidForToken}.\n     * There must be a bid exists\n     * remove this bid record\n     */\n    function withdrawBidForToken(address erc721Address, uint256 tokenId)\n        external\n        override\n    {\n        Bid memory bid = _erc721Market[erc721Address].bids[tokenId].bids[\n            msg.sender\n        ];\n        require(\n            bid.bidder == msg.sender,\n            \"This address doesn't have bid on this token\"\n        );\n\n        emit TokenBidWithdrawn(erc721Address, tokenId, bid);\n        _removeBidOfBidder(erc721Address, tokenId, msg.sender);\n    }\n\n    /**\n     * @dev See {INFTKEYMarketplaceV2-acceptBidForToken}.\n     * Must be owner of this token\n     * Must have approved this contract to transfer token\n     * Must have a valid existing bid that matches\n     */\n    function acceptBidForToken(\n        address erc721Address,\n        uint256 tokenId,\n        address bidder,\n        uint256 value\n    ) external override nonReentrant {\n        require(\n            _isTokenOwner(erc721Address, tokenId, msg.sender),\n            \"Only token owner can accept bid of token\"\n        );\n        require(\n            _isTokenApproved(erc721Address, tokenId) ||\n                _isAllTokenApproved(erc721Address, msg.sender),\n            \"The token is not approved to transfer by the contract\"\n        );\n\n        Bid memory existingBid = getBidderTokenBid(\n            erc721Address,\n            tokenId,\n            bidder\n        );\n        require(\n            existingBid.tokenId == tokenId &&\n                existingBid.value == value &&\n                existingBid.bidder == bidder,\n            \"This token doesn't have a matching bid\"\n        );\n\n        address _royaltyRecipient = royalty(erc721Address).recipient;\n        (uint256 _serviceFee, uint256 _royaltyFee) = _calculateFees(\n            erc721Address,\n            existingBid.value\n        );\n\n        _paymentToken.safeTransferFrom({\n            from: existingBid.bidder,\n            to: msg.sender,\n            value: existingBid.value - _serviceFee - _royaltyFee\n        });\n        _paymentToken.safeTransferFrom({\n            from: existingBid.bidder,\n            to: owner(),\n            value: _serviceFee\n        });\n        if (_royaltyRecipient != address(0) && _royaltyFee > 0) {\n            _paymentToken.safeTransferFrom({\n                from: existingBid.bidder,\n                to: _royaltyRecipient,\n                value: _royaltyFee\n            });\n        }\n\n        IERC721(erc721Address).safeTransferFrom({\n            from: msg.sender,\n            to: existingBid.bidder,\n            tokenId: tokenId\n        });\n\n        emit TokenBidAccepted({\n            erc721Address: erc721Address,\n            tokenId: tokenId,\n            seller: msg.sender,\n            bid: existingBid,\n            serviceFee: _serviceFee,\n            royaltyFee: _royaltyFee\n        });\n\n        // Remove token listing\n        _delistToken(erc721Address, tokenId);\n        _removeBidOfBidder(erc721Address, tokenId, existingBid.bidder);\n    }\n\n    /**\n     * @dev See {INFTKEYMarketplaceV2-isTradingEnabled}.\n     */\n    function isTradingEnabled() external view override returns (bool) {\n        return _isTradingEnabled;\n    }\n\n    /**\n     * @dev See {INFTKEYMarketplaceV2-getTokenListing}.\n     */\n    function getTokenListing(address erc721Address, uint256 tokenId)\n        public\n        view\n        override\n        returns (Listing memory validListing)\n    {\n        Listing memory listing = _erc721Market[erc721Address].listings[tokenId];\n        if (_isListingValid(erc721Address, listing)) {\n            validListing = listing;\n        }\n    }\n\n    /**\n     * @dev See {INFTKEYMarketplaceV2-numTokenListings}.\n     */\n    function numTokenListings(address erc721Address)\n        public\n        view\n        override\n        returns (uint256)\n    {\n        return _erc721Market[erc721Address].tokenIdWithListing.length();\n    }\n\n    /**\n     * @dev See {INFTKEYMarketplaceV2-getTokenListings}.\n     */\n    function getTokenListings(\n        address erc721Address,\n        uint256 from,\n        uint256 size\n    ) public view override returns (Listing[] memory listings) {\n        uint256 listingsCount = numTokenListings(erc721Address);\n\n        if (from < listingsCount && size > 0) {\n            uint256 querySize = size;\n            if ((from + size) > listingsCount) {\n                querySize = listingsCount - from;\n            }\n            listings = new Listing[](querySize);\n            for (uint256 i = 0; i < querySize; i++) {\n                uint256 tokenId = _erc721Market[erc721Address]\n                    .tokenIdWithListing\n                    .at(i + from);\n                Listing memory listing = _erc721Market[erc721Address].listings[\n                    tokenId\n                ];\n                if (_isListingValid(erc721Address, listing)) {\n                    listings[i] = listing;\n                }\n            }\n        }\n    }\n\n    /**\n     * @dev See {INFTKEYMarketplaceV2-getBidderTokenBid}.\n     */\n    function getBidderTokenBid(\n        address erc721Address,\n        uint256 tokenId,\n        address bidder\n    ) public view override returns (Bid memory validBid) {\n        Bid memory bid = _erc721Market[erc721Address].bids[tokenId].bids[\n            bidder\n        ];\n        if (_isBidValid(erc721Address, bid)) {\n            validBid = bid;\n        }\n    }\n\n    /**\n     * @dev See {INFTKEYMarketplaceV2-getTokenBids}.\n     */\n    function getTokenBids(address erc721Address, uint256 tokenId)\n        external\n        view\n        override\n        returns (Bid[] memory bids)\n    {\n        uint256 bidderCount = _erc721Market[erc721Address]\n            .bids[tokenId]\n            .bidders\n            .length();\n\n        bids = new Bid[](bidderCount);\n        for (uint256 i; i < bidderCount; i++) {\n            address bidder = _erc721Market[erc721Address]\n                .bids[tokenId]\n                .bidders\n                .at(i);\n            Bid memory bid = _erc721Market[erc721Address].bids[tokenId].bids[\n                bidder\n            ];\n            if (_isBidValid(erc721Address, bid)) {\n                bids[i] = bid;\n            }\n        }\n    }\n\n    /**\n     * @dev See {INFTKEYMarketplaceV2-getTokenHighestBid}.\n     */\n    function getTokenHighestBid(address erc721Address, uint256 tokenId)\n        public\n        view\n        override\n        returns (Bid memory highestBid)\n    {\n        highestBid = Bid(tokenId, 0, address(0), 0);\n        uint256 bidderCount = _erc721Market[erc721Address]\n            .bids[tokenId]\n            .bidders\n            .length();\n        for (uint256 i; i < bidderCount; i++) {\n            address bidder = _erc721Market[erc721Address]\n                .bids[tokenId]\n                .bidders\n                .at(i);\n            Bid memory bid = _erc721Market[erc721Address].bids[tokenId].bids[\n                bidder\n            ];\n            if (\n                _isBidValid(erc721Address, bid) && bid.value > highestBid.value\n            ) {\n                highestBid = bid;\n            }\n        }\n    }\n\n    /**\n     * @dev See {INFTKEYMarketplaceV2-numTokenWithBids}.\n     */\n    function numTokenWithBids(address erc721Address)\n        public\n        view\n        override\n        returns (uint256)\n    {\n        return _erc721Market[erc721Address].tokenIdWithBid.length();\n    }\n\n    /**\n     * @dev See {INFTKEYMarketplaceV2-getTokenHighestBids}.\n     */\n    function getTokenHighestBids(\n        address erc721Address,\n        uint256 from,\n        uint256 size\n    ) public view override returns (Bid[] memory highestBids) {\n        uint256 tokenCount = numTokenWithBids(erc721Address);\n\n        if (from < tokenCount && size > 0) {\n            uint256 querySize = size;\n            if ((from + size) > tokenCount) {\n                querySize = tokenCount - from;\n            }\n            highestBids = new Bid[](querySize);\n            for (uint256 i = 0; i < querySize; i++) {\n                highestBids[i] = getTokenHighestBid({\n                    erc721Address: erc721Address,\n                    tokenId: _erc721Market[erc721Address].tokenIdWithBid.at(\n                        i + from\n                    )\n                });\n            }\n        }\n    }\n\n    function getBidderBids(\n        address erc721Address,\n        address bidder,\n        uint256 from,\n        uint256 size\n    ) external view override returns (Bid[] memory bidderBids) {\n        uint256 tokenCount = numTokenWithBids(erc721Address);\n\n        if (from < tokenCount && size > 0) {\n            uint256 querySize = size;\n            if ((from + size) > tokenCount) {\n                querySize = tokenCount - from;\n            }\n            bidderBids = new Bid[](querySize);\n            for (uint256 i = 0; i < querySize; i++) {\n                bidderBids[i] = getBidderTokenBid({\n                    erc721Address: erc721Address,\n                    tokenId: _erc721Market[erc721Address].tokenIdWithBid.at(\n                        i + from\n                    ),\n                    bidder: bidder\n                });\n            }\n        }\n    }\n\n    /**\n     * @dev check if the account is the owner of this erc721 token\n     */\n    function _isTokenOwner(\n        address erc721Address,\n        uint256 tokenId,\n        address account\n    ) private view returns (bool) {\n        IERC721 _erc721 = IERC721(erc721Address);\n        try _erc721.ownerOf(tokenId) returns (address tokenOwner) {\n            return tokenOwner == account;\n        } catch {\n            return false;\n        }\n    }\n\n    /**\n     * @dev check if this contract has approved to transfer this erc721 token\n     */\n    function _isTokenApproved(address erc721Address, uint256 tokenId)\n        private\n        view\n        returns (bool)\n    {\n        IERC721 _erc721 = IERC721(erc721Address);\n        try _erc721.getApproved(tokenId) returns (address tokenOperator) {\n            return tokenOperator == address(this);\n        } catch {\n            return false;\n        }\n    }\n\n    /**\n     * @dev check if this contract has approved to all of this owner's erc721 tokens\n     */\n    function _isAllTokenApproved(address erc721Address, address owner)\n        private\n        view\n        returns (bool)\n    {\n        IERC721 _erc721 = IERC721(erc721Address);\n        return _erc721.isApprovedForAll(owner, address(this));\n    }\n\n    /**\n     * @dev Check if a listing is valid or not\n     * The seller must be the owner\n     * The seller must have give this contract allowance\n     * The sell price must be more than 0\n     * The listing mustn't be expired\n     */\n    function _isListingValid(address erc721Address, Listing memory listing)\n        private\n        view\n        returns (bool isValid)\n    {\n        if (\n            _isTokenOwner(erc721Address, listing.tokenId, listing.seller) &&\n            (_isTokenApproved(erc721Address, listing.tokenId) ||\n                _isAllTokenApproved(erc721Address, listing.seller)) &&\n            listing.value > 0 &&\n            listing.expireTimestamp > block.timestamp\n        ) {\n            isValid = true;\n        }\n    }\n\n    /**\n     * @dev Check if an bid is valid or not\n     * Bidder must not be the owner\n     * Bidder must have enough balance same or more than bid price\n     * Bidder must give the contract allowance same or more than bid price\n     * Bid price must > 0\n     * Bid mustn't been expired\n     */\n    function _isBidValid(address erc721Address, Bid memory bid)\n        private\n        view\n        returns (bool isValid)\n    {\n        if (\n            !_isTokenOwner(erc721Address, bid.tokenId, bid.bidder) &&\n            _paymentToken.allowance(bid.bidder, address(this)) >= bid.value &&\n            _paymentToken.balanceOf(bid.bidder) >= bid.value &&\n            bid.value > 0 &&\n            bid.expireTimestamp > block.timestamp\n        ) {\n            isValid = true;\n        }\n    }\n\n    /**\n     * @dev delist a token - remove token id record and remove listing from mapping\n     * @param tokenId erc721 token Id\n     */\n    function _delistToken(address erc721Address, uint256 tokenId) private {\n        if (_erc721Market[erc721Address].tokenIdWithListing.contains(tokenId)) {\n            delete _erc721Market[erc721Address].listings[tokenId];\n            _erc721Market[erc721Address].tokenIdWithListing.remove(tokenId);\n        }\n    }\n\n    /**\n     * @dev remove a bid of a bidder\n     * @param tokenId erc721 token Id\n     * @param bidder bidder address\n     */\n    function _removeBidOfBidder(\n        address erc721Address,\n        uint256 tokenId,\n        address bidder\n    ) private {\n        if (\n            _erc721Market[erc721Address].bids[tokenId].bidders.contains(bidder)\n        ) {\n            // Step 1: delete the bid and the address\n            delete _erc721Market[erc721Address].bids[tokenId].bids[bidder];\n            _erc721Market[erc721Address].bids[tokenId].bidders.remove(bidder);\n\n            // Step 2: if no bid left\n            if (\n                _erc721Market[erc721Address].bids[tokenId].bidders.length() == 0\n            ) {\n                _erc721Market[erc721Address].tokenIdWithBid.remove(tokenId);\n            }\n        }\n    }\n\n    /**\n     * @dev Calculate service fee, royalty fee and left value\n     * @param value bidder address\n     */\n    function _calculateFees(address erc721Address, uint256 value)\n        private\n        view\n        returns (uint256 _serviceFee, uint256 _royaltyFee)\n    {\n        uint256 _royaltyFeeFraction = royalty(erc721Address).feeFraction;\n        uint256 _baseFractions = 1000 +\n            _serviceFeeFraction +\n            _royaltyFeeFraction;\n\n        _serviceFee = (value * _serviceFeeFraction) / _baseFractions;\n        _royaltyFee = (value * _royaltyFeeFraction) / _baseFractions;\n    }\n\n    /**\n     * @dev Enable to disable Bids and Listing\n     */\n    function changeMarketplaceStatus(bool enabled) external onlyOwner {\n        _isTradingEnabled = enabled;\n    }\n\n    /**\n     * @dev See {INFTKEYMarketplaceV2-actionTimeOutRangeMin}.\n     */\n    function actionTimeOutRangeMin() external view override returns (uint256) {\n        return _actionTimeOutRangeMin;\n    }\n\n    /**\n     * @dev See {INFTKEYMarketplaceV2-actionTimeOutRangeMax}.\n     */\n    function actionTimeOutRangeMax() external view override returns (uint256) {\n        return _actionTimeOutRangeMax;\n    }\n\n    /**\n     * @dev See {INFTKEYMarketplaceV2-paymentToken}.\n     */\n    function paymentToken() external view override returns (address) {\n        return address(_paymentToken);\n    }\n\n    /**\n     * @dev Change minimum listing and bid time range\n     */\n    function changeMinActionTimeLimit(uint256 timeInSec) external onlyOwner {\n        _actionTimeOutRangeMin = timeInSec;\n    }\n\n    /**\n     * @dev Change maximum listing and bid time range\n     */\n    function changeMaxActionTimeLimit(uint256 timeInSec) external onlyOwner {\n        _actionTimeOutRangeMax = timeInSec;\n    }\n\n    /**\n     * @dev See {INFTKEYMarketplaceV2-serviceFee}.\n     */\n    function serviceFee() external view override returns (uint8) {\n        return _serviceFeeFraction;\n    }\n\n    /**\n     * @dev Change withdrawal fee percentage.\n     * @param serviceFeeFraction_ Fraction of withdrawal fee based on 1000\n     */\n    function changeSeriveFee(uint8 serviceFeeFraction_) external onlyOwner {\n        require(\n            serviceFeeFraction_ <= 25,\n            \"Attempt to set percentage higher than 2.5%.\"\n        );\n\n        _serviceFeeFraction = serviceFeeFraction_;\n    }\n}\n",
  "sourcePath": "/Users/fayexue/projects/nftkey-marketplace-v2/contracts/NFTKEYMarketplaceV2.sol",
  "compiler": {
    "name": "solc",
    "version": "0.8.9+commit.e5eed63a.Emscripten.clang"
  },
  "schemaVersion": "3.4.3",
  "updatedAt": "2021-11-02T08:41:59.465Z",
  "networkType": "ethereum",
  "devdoc": {
    "kind": "dev",
    "methods": {
      "acceptBidForToken(address,uint256,address,uint256)": {
        "details": "See {INFTKEYMarketplaceV2-acceptBidForToken}. Must be owner of this token Must have approved this contract to transfer token Must have a valid existing bid that matches"
      },
      "actionTimeOutRangeMax()": {
        "details": "See {INFTKEYMarketplaceV2-actionTimeOutRangeMax}."
      },
      "actionTimeOutRangeMin()": {
        "details": "See {INFTKEYMarketplaceV2-actionTimeOutRangeMin}."
      },
      "buyToken(address,uint256)": {
        "details": "See {INFTKEYMarketplaceV2-buyToken}. Must have a valid listing msg.sender must not the owner of token msg.value must be at least sell price plus fees"
      },
      "changeMarketplaceStatus(bool)": {
        "details": "Enable to disable Bids and Listing"
      },
      "changeMaxActionTimeLimit(uint256)": {
        "details": "Change maximum listing and bid time range"
      },
      "changeMinActionTimeLimit(uint256)": {
        "details": "Change minimum listing and bid time range"
      },
      "changeSeriveFee(uint8)": {
        "details": "Change withdrawal fee percentage.",
        "params": {
          "serviceFeeFraction_": "Fraction of withdrawal fee based on 1000"
        }
      },
      "delistToken(address,uint256)": {
        "details": "See {INFTKEYMarketplaceV2-delistToken}. msg.sender must be the seller of the listing record"
      },
      "enterBidForToken(address,uint256,uint256,uint256)": {
        "details": "See {INFTKEYMarketplaceV2-enterBidForToken}. People can only enter bid if bid is valid"
      },
      "getBidderBids(address,address,uint256,uint256)": {
        "details": "get all bids of a bidder address",
        "returns": {
          "bidderBids": "All valid bids of a bidder"
        }
      },
      "getBidderTokenBid(address,uint256,address)": {
        "details": "See {INFTKEYMarketplaceV2-getBidderTokenBid}."
      },
      "getTokenBids(address,uint256)": {
        "details": "See {INFTKEYMarketplaceV2-getTokenBids}."
      },
      "getTokenHighestBid(address,uint256)": {
        "details": "See {INFTKEYMarketplaceV2-getTokenHighestBid}."
      },
      "getTokenHighestBids(address,uint256,uint256)": {
        "details": "See {INFTKEYMarketplaceV2-getTokenHighestBids}."
      },
      "getTokenListing(address,uint256)": {
        "details": "See {INFTKEYMarketplaceV2-getTokenListing}."
      },
      "getTokenListings(address,uint256,uint256)": {
        "details": "See {INFTKEYMarketplaceV2-getTokenListings}."
      },
      "isTradingEnabled()": {
        "details": "See {INFTKEYMarketplaceV2-isTradingEnabled}."
      },
      "listToken(address,uint256,uint256,uint256)": {
        "details": "See {INFTKEYMarketplaceV2-listToken}. The timestamp set needs to be in the allowed range Listing must be valid"
      },
      "numTokenListings(address)": {
        "details": "See {INFTKEYMarketplaceV2-numTokenListings}."
      },
      "numTokenWithBids(address)": {
        "details": "See {INFTKEYMarketplaceV2-numTokenWithBids}."
      },
      "owner()": {
        "details": "Returns the address of the current owner."
      },
      "paymentToken()": {
        "details": "See {INFTKEYMarketplaceV2-paymentToken}."
      },
      "renounceOwnership()": {
        "details": "Leaves the contract without owner. It will not be possible to call `onlyOwner` functions anymore. Can only be called by the current owner. NOTE: Renouncing ownership will leave the contract without an owner, thereby removing any functionality that is only available to the owner."
      },
      "royalty(address)": {
        "details": "Royalty fee",
        "params": {
          "erc721Address": "to read royalty"
        },
        "returns": {
          "_0": "royalty information"
        }
      },
      "serviceFee()": {
        "details": "See {INFTKEYMarketplaceV2-serviceFee}."
      },
      "transferOwnership(address)": {
        "details": "Transfers ownership of the contract to a new account (`newOwner`). Can only be called by the current owner."
      },
      "withdrawBidForToken(address,uint256)": {
        "details": "See {INFTKEYMarketplaceV2-withdrawBidForToken}. There must be a bid exists remove this bid record"
      }
    },
    "title": "NFTKEY Marketplace contract V2 Note: Payment tokens usually is the chain native coin's wrapped token, e.g. WETH, WBNB",
    "version": 1
  },
  "userdoc": {
    "kind": "user",
    "methods": {},
    "version": 1
  }
}