{
  "contractName": "NFTKEYMarketplaceRoyalty",
  "abi": [
    {
      "anonymous": false,
      "inputs": [
        {
          "indexed": true,
          "internalType": "address",
          "name": "previousOwner",
          "type": "address"
        },
        {
          "indexed": true,
          "internalType": "address",
          "name": "newOwner",
          "type": "address"
        }
      ],
      "name": "OwnershipTransferred",
      "type": "event"
    },
    {
      "anonymous": false,
      "inputs": [
        {
          "indexed": true,
          "internalType": "address",
          "name": "erc721Address",
          "type": "address"
        },
        {
          "indexed": true,
          "internalType": "address",
          "name": "recipient",
          "type": "address"
        },
        {
          "indexed": false,
          "internalType": "uint256",
          "name": "feeFraction",
          "type": "uint256"
        }
      ],
      "name": "SetRoyalty",
      "type": "event"
    },
    {
      "inputs": [],
      "name": "defaultRoyaltyFraction",
      "outputs": [
        {
          "internalType": "uint256",
          "name": "",
          "type": "uint256"
        }
      ],
      "stateMutability": "view",
      "type": "function"
    },
    {
      "inputs": [],
      "name": "owner",
      "outputs": [
        {
          "internalType": "address",
          "name": "",
          "type": "address"
        }
      ],
      "stateMutability": "view",
      "type": "function"
    },
    {
      "inputs": [],
      "name": "renounceOwnership",
      "outputs": [],
      "stateMutability": "nonpayable",
      "type": "function"
    },
    {
      "inputs": [],
      "name": "royaltyUpperLimit",
      "outputs": [
        {
          "internalType": "uint256",
          "name": "",
          "type": "uint256"
        }
      ],
      "stateMutability": "view",
      "type": "function"
    },
    {
      "inputs": [
        {
          "internalType": "address",
          "name": "newOwner",
          "type": "address"
        }
      ],
      "name": "transferOwnership",
      "outputs": [],
      "stateMutability": "nonpayable",
      "type": "function"
    },
    {
      "inputs": [
        {
          "internalType": "address",
          "name": "erc721Address",
          "type": "address"
        }
      ],
      "name": "royalty",
      "outputs": [
        {
          "components": [
            {
              "internalType": "address",
              "name": "recipient",
              "type": "address"
            },
            {
              "internalType": "uint256",
              "name": "feeFraction",
              "type": "uint256"
            },
            {
              "internalType": "address",
              "name": "setBy",
              "type": "address"
            }
          ],
          "internalType": "struct INFTKEYMarketplaceRoyalty.ERC721CollectionRoyalty",
          "name": "",
          "type": "tuple"
        }
      ],
      "stateMutability": "view",
      "type": "function"
    },
    {
      "inputs": [
        {
          "internalType": "address",
          "name": "erc721Address",
          "type": "address"
        },
        {
          "internalType": "address",
          "name": "newRecipient",
          "type": "address"
        },
        {
          "internalType": "uint256",
          "name": "feeFraction",
          "type": "uint256"
        }
      ],
      "name": "setRoyalty",
      "outputs": [],
      "stateMutability": "nonpayable",
      "type": "function"
    },
    {
      "inputs": [
        {
          "internalType": "address",
          "name": "erc721Address",
          "type": "address"
        },
        {
          "internalType": "address",
          "name": "newRecipient",
          "type": "address"
        },
        {
          "internalType": "uint256",
          "name": "feeFraction",
          "type": "uint256"
        }
      ],
      "name": "setRoyaltyForCollection",
      "outputs": [],
      "stateMutability": "nonpayable",
      "type": "function"
    },
    {
      "inputs": [
        {
          "internalType": "uint256",
          "name": "_newUpperLimit",
          "type": "uint256"
        }
      ],
      "name": "updateRoyaltyUpperLimit",
      "outputs": [],
      "stateMutability": "nonpayable",
      "type": "function"
    }
  ],
  "bytecode": "0x60806040526014600155605060025534801561001a57600080fd5b5061002433610029565b610079565b600080546001600160a01b038381166001600160a01b0319831681178455604051919092169283917f8be0079c531659141344cd1fd0a4f28419497f9722a3daafe3b4186f6b6457e09190a35050565b610aea806100886000396000f3fe608060405234801561001057600080fd5b50600436106100a35760003560e01c8063861b69d611610076578063cdea490d1161005b578063cdea490d1461016c578063ee8ef34d1461017f578063f2fde38b1461018857600080fd5b8063861b69d6146100f45780638da5cb5b1461014457600080fd5b806319d334cb146100a857806355c338aa146100bd5780636d0042b8146100d0578063715018a6146100ec575b600080fd5b6100bb6100b6366004610a19565b61019b565b005b6100bb6100cb366004610a19565b610432565b6100d960015481565b6040519081526020015b60405180910390f35b6100bb610572565b610107610102366004610a5a565b6105ff565b60408051825173ffffffffffffffffffffffffffffffffffffffff90811682526020808501519083015292820151909216908201526060016100e3565b60005460405173ffffffffffffffffffffffffffffffffffffffff90911681526020016100e3565b6100bb61017a366004610a7e565b610724565b6100d960025481565b6100bb610196366004610a5a565b6107aa565b60005473ffffffffffffffffffffffffffffffffffffffff163314610221576040517f08c379a000000000000000000000000000000000000000000000000000000000815260206004820181905260248201527f4f776e61626c653a2063616c6c6572206973206e6f7420746865206f776e657260448201526064015b60405180910390fd5b6002548111156102b3576040517f08c379a000000000000000000000000000000000000000000000000000000000815260206004820152603660248201527f506c65617365207365742074686520726f79616c74792070657263656e74616e60448201527f67652062656c6f7720616c6c6f7765642072616e6765000000000000000000006064820152608401610218565b60006102be846105ff565b6040015173ffffffffffffffffffffffffffffffffffffffff1614610365576040517f08c379a000000000000000000000000000000000000000000000000000000000815260206004820152602860248201527f436f6c6c656374696f6e20726f79616c747920726563697069656e7420616c7260448201527f65616479207365740000000000000000000000000000000000000000000000006064820152608401610218565b6040805160608101825273ffffffffffffffffffffffffffffffffffffffff8085168083526020808401868152338587019081528985166000818152600390945292879020955186549086167fffffffffffffffffffffffff00000000000000000000000000000000000000009182161787559151600187015551600290950180549590941694169390931790915591517fb6b61d78ac5372b51940cf3b322ea21839c456cade69acdf1b9fb9a6f79d6ff7906104259085815260200190565b60405180910390a3505050565b6002548111156104c4576040517f08c379a000000000000000000000000000000000000000000000000000000000815260206004820152603660248201527f506c65617365207365742074686520726f79616c74792070657263656e74616e60448201527f67652062656c6f7720616c6c6f7765642072616e6765000000000000000000006064820152608401610218565b6104cd836105ff565b5173ffffffffffffffffffffffffffffffffffffffff163314610365576040517f08c379a000000000000000000000000000000000000000000000000000000000815260206004820152603760248201527f4f6e6c792045524337323120726f79616c747920726563697069656e7420697360448201527f20616c6c6f77656420746f2073657420526f79616c74790000000000000000006064820152608401610218565b60005473ffffffffffffffffffffffffffffffffffffffff1633146105f3576040517f08c379a000000000000000000000000000000000000000000000000000000000815260206004820181905260248201527f4f776e61626c653a2063616c6c6572206973206e6f7420746865206f776e65726044820152606401610218565b6105fd60006108da565b565b604080516060810182526000808252602082018190529181019190915273ffffffffffffffffffffffffffffffffffffffff828116600090815260036020526040902060020154161561069f575073ffffffffffffffffffffffffffffffffffffffff9081166000908152600360209081526040918290208251606081018452815485168152600182015492810192909252600201549092169082015290565b60006106aa8361094f565b905073ffffffffffffffffffffffffffffffffffffffff811615610700576040805160608101825273ffffffffffffffffffffffffffffffffffffffff9092168252600154602083015260009082015292915050565b50506040805160608101825260008082526020820181905291810191909152919050565b60005473ffffffffffffffffffffffffffffffffffffffff1633146107a5576040517f08c379a000000000000000000000000000000000000000000000000000000000815260206004820181905260248201527f4f776e61626c653a2063616c6c6572206973206e6f7420746865206f776e65726044820152606401610218565b600255565b60005473ffffffffffffffffffffffffffffffffffffffff16331461082b576040517f08c379a000000000000000000000000000000000000000000000000000000000815260206004820181905260248201527f4f776e61626c653a2063616c6c6572206973206e6f7420746865206f776e65726044820152606401610218565b73ffffffffffffffffffffffffffffffffffffffff81166108ce576040517f08c379a000000000000000000000000000000000000000000000000000000000815260206004820152602660248201527f4f776e61626c653a206e6577206f776e657220697320746865207a65726f206160448201527f64647265737300000000000000000000000000000000000000000000000000006064820152608401610218565b6108d7816108da565b50565b6000805473ffffffffffffffffffffffffffffffffffffffff8381167fffffffffffffffffffffffff0000000000000000000000000000000000000000831681178455604051919092169283917f8be0079c531659141344cd1fd0a4f28419497f9722a3daafe3b4186f6b6457e09190a35050565b60008173ffffffffffffffffffffffffffffffffffffffff16638da5cb5b6040518163ffffffff1660e01b815260040160206040518083038186803b15801561099757600080fd5b505afa9250505080156109e5575060408051601f3d9081017fffffffffffffffffffffffffffffffffffffffffffffffffffffffffffffffe01682019092526109e291810190610a97565b60015b6109f157506000919050565b92915050565b73ffffffffffffffffffffffffffffffffffffffff811681146108d757600080fd5b600080600060608486031215610a2e57600080fd5b8335610a39816109f7565b92506020840135610a49816109f7565b929592945050506040919091013590565b600060208284031215610a6c57600080fd5b8135610a77816109f7565b9392505050565b600060208284031215610a9057600080fd5b5035919050565b600060208284031215610aa957600080fd5b8151610a77816109f756fea26469706673582212202d8a2fc08e469f7b2e972773bdc50266f0e039f182e5d213d256a6e2fac008be64736f6c63430008090033",
  "immutableReferences": {},
  "source": "// SPDX-License-Identifier: AGPL-3.0-or-later\n\npragma solidity =0.8.9;\npragma abicoder v2;\n\nimport \"@openzeppelin/contracts/access/Ownable.sol\";\nimport \"./interface/INFTKEYMarketplaceRoyalty.sol\";\n\ncontract NFTKEYMarketplaceRoyalty is INFTKEYMarketplaceRoyalty, Ownable {\n    uint256 public defaultRoyaltyFraction = 20; // By the factor of 1000, 2%\n    uint256 public royaltyUpperLimit = 80; // By the factor of 1000, 8%\n\n    mapping(address => ERC721CollectionRoyalty) private _collectionRoyalty;\n\n    function _erc721Owner(address erc721Address)\n        private\n        view\n        returns (address)\n    {\n        try Ownable(erc721Address).owner() returns (address _contractOwner) {\n            return _contractOwner;\n        } catch {\n            return address(0);\n        }\n    }\n\n    function royalty(address erc721Address)\n        public\n        view\n        override\n        returns (ERC721CollectionRoyalty memory)\n    {\n        if (_collectionRoyalty[erc721Address].setBy != address(0)) {\n            return _collectionRoyalty[erc721Address];\n        }\n\n        address erc721Owner = _erc721Owner(erc721Address);\n        if (erc721Owner != address(0)) {\n            return\n                ERC721CollectionRoyalty({\n                    recipient: erc721Owner,\n                    feeFraction: defaultRoyaltyFraction,\n                    setBy: address(0)\n                });\n        }\n\n        return\n            ERC721CollectionRoyalty({\n                recipient: address(0),\n                feeFraction: 0,\n                setBy: address(0)\n            });\n    }\n\n    function setRoyalty(\n        address erc721Address,\n        address newRecipient,\n        uint256 feeFraction\n    ) external override {\n        require(\n            feeFraction <= royaltyUpperLimit,\n            \"Please set the royalty percentange below allowed range\"\n        );\n\n        require(\n            msg.sender == royalty(erc721Address).recipient,\n            \"Only ERC721 royalty recipient is allowed to set Royalty\"\n        );\n\n        _collectionRoyalty[erc721Address] = ERC721CollectionRoyalty({\n            recipient: newRecipient,\n            feeFraction: feeFraction,\n            setBy: msg.sender\n        });\n\n        emit SetRoyalty({\n            erc721Address: erc721Address,\n            recipient: newRecipient,\n            feeFraction: feeFraction\n        });\n    }\n\n    function setRoyaltyForCollection(\n        address erc721Address,\n        address newRecipient,\n        uint256 feeFraction\n    ) external onlyOwner {\n        require(\n            feeFraction <= royaltyUpperLimit,\n            \"Please set the royalty percentange below allowed range\"\n        );\n\n        require(\n            royalty(erc721Address).setBy == address(0),\n            \"Collection royalty recipient already set\"\n        );\n\n        _collectionRoyalty[erc721Address] = ERC721CollectionRoyalty({\n            recipient: newRecipient,\n            feeFraction: feeFraction,\n            setBy: msg.sender\n        });\n\n        emit SetRoyalty({\n            erc721Address: erc721Address,\n            recipient: newRecipient,\n            feeFraction: feeFraction\n        });\n    }\n\n    function updateRoyaltyUpperLimit(uint256 _newUpperLimit)\n        external\n        onlyOwner\n    {\n        royaltyUpperLimit = _newUpperLimit;\n    }\n}\n",
  "sourcePath": "/Users/fayexue/projects/nftkey-marketplace-v2/contracts/NFTKEYMarketplaceRoyalty.sol",
  "compiler": {
    "name": "solc",
    "version": "0.8.9+commit.e5eed63a.Emscripten.clang"
  },
  "schemaVersion": "3.4.3",
  "updatedAt": "2021-10-26T06:26:55.234Z",
  "devdoc": {
    "kind": "dev",
    "methods": {
      "owner()": {
        "details": "Returns the address of the current owner."
      },
      "renounceOwnership()": {
        "details": "Leaves the contract without owner. It will not be possible to call `onlyOwner` functions anymore. Can only be called by the current owner. NOTE: Renouncing ownership will leave the contract without an owner, thereby removing any functionality that is only available to the owner."
      },
      "royalty(address)": {
        "details": "Royalty fee",
        "params": {
          "erc721Address": "to read royalty"
        },
        "returns": {
          "_0": "royalty information"
        }
      },
      "transferOwnership(address)": {
        "details": "Transfers ownership of the contract to a new account (`newOwner`). Can only be called by the current owner."
      }
    },
    "version": 1
  },
  "userdoc": {
    "kind": "user",
    "methods": {},
    "version": 1
  }
}