{
  "contractName": "NFTKEYMarketplaceRoyalty",
  "abi": [
    {
      "anonymous": false,
      "inputs": [
        {
          "indexed": true,
          "internalType": "address",
          "name": "previousOwner",
          "type": "address"
        },
        {
          "indexed": true,
          "internalType": "address",
          "name": "newOwner",
          "type": "address"
        }
      ],
      "name": "OwnershipTransferred",
      "type": "event"
    },
    {
      "anonymous": false,
      "inputs": [
        {
          "indexed": true,
          "internalType": "address",
          "name": "erc721Address",
          "type": "address"
        },
        {
          "indexed": true,
          "internalType": "address",
          "name": "recipient",
          "type": "address"
        },
        {
          "indexed": false,
          "internalType": "uint256",
          "name": "feeFraction",
          "type": "uint256"
        }
      ],
      "name": "SetRoyalty",
      "type": "event"
    },
    {
      "inputs": [],
      "name": "defaultRoyaltyFraction",
      "outputs": [
        {
          "internalType": "uint256",
          "name": "",
          "type": "uint256"
        }
      ],
      "stateMutability": "view",
      "type": "function"
    },
    {
      "inputs": [],
      "name": "owner",
      "outputs": [
        {
          "internalType": "address",
          "name": "",
          "type": "address"
        }
      ],
      "stateMutability": "view",
      "type": "function"
    },
    {
      "inputs": [],
      "name": "renounceOwnership",
      "outputs": [],
      "stateMutability": "nonpayable",
      "type": "function"
    },
    {
      "inputs": [],
      "name": "royaltyUpperLimit",
      "outputs": [
        {
          "internalType": "uint256",
          "name": "",
          "type": "uint256"
        }
      ],
      "stateMutability": "view",
      "type": "function"
    },
    {
      "inputs": [
        {
          "internalType": "address",
          "name": "newOwner",
          "type": "address"
        }
      ],
      "name": "transferOwnership",
      "outputs": [],
      "stateMutability": "nonpayable",
      "type": "function"
    },
    {
      "inputs": [
        {
          "internalType": "address",
          "name": "erc721Address",
          "type": "address"
        }
      ],
      "name": "royalty",
      "outputs": [
        {
          "components": [
            {
              "internalType": "address",
              "name": "recipient",
              "type": "address"
            },
            {
              "internalType": "uint256",
              "name": "feeFraction",
              "type": "uint256"
            },
            {
              "internalType": "address",
              "name": "setBy",
              "type": "address"
            }
          ],
          "internalType": "struct INFTKEYMarketplaceRoyalty.ERC721CollectionRoyalty",
          "name": "",
          "type": "tuple"
        }
      ],
      "stateMutability": "view",
      "type": "function"
    },
    {
      "inputs": [
        {
          "internalType": "address",
          "name": "erc721Address",
          "type": "address"
        },
        {
          "internalType": "address",
          "name": "royaltyRecipient",
          "type": "address"
        },
        {
          "internalType": "uint256",
          "name": "feeFraction",
          "type": "uint256"
        }
      ],
      "name": "setRoyalty",
      "outputs": [],
      "stateMutability": "nonpayable",
      "type": "function"
    },
    {
      "inputs": [
        {
          "internalType": "uint256",
          "name": "_newUpperLimit",
          "type": "uint256"
        }
      ],
      "name": "updateRoyaltyUpperLimit",
      "outputs": [],
      "stateMutability": "nonpayable",
      "type": "function"
    }
  ],
  "bytecode": "0x60806040526014600155606460025534801561001a57600080fd5b5061002433610029565b610079565b600080546001600160a01b038381166001600160a01b0319831681178455604051919092169283917f8be0079c531659141344cd1fd0a4f28419497f9722a3daafe3b4186f6b6457e09190a35050565b610959806100886000396000f3fe608060405234801561001057600080fd5b50600436106100885760003560e01c80638da5cb5b1161005b5780638da5cb5b14610116578063cdea490d1461013e578063ee8ef34d14610151578063f2fde38b1461015a57600080fd5b806355c338aa1461008d5780636d0042b8146100a2578063715018a6146100be578063861b69d6146100c6575b600080fd5b6100a061009b366004610888565b61016d565b005b6100ab60015481565b6040519081526020015b60405180910390f35b6100a06103e1565b6100d96100d43660046108c9565b61046e565b60408051825173ffffffffffffffffffffffffffffffffffffffff90811682526020808501519083015292820151909216908201526060016100b5565b60005460405173ffffffffffffffffffffffffffffffffffffffff90911681526020016100b5565b6100a061014c3660046108ed565b610593565b6100ab60025481565b6100a06101683660046108c9565b610619565b600254811115610204576040517f08c379a000000000000000000000000000000000000000000000000000000000815260206004820152603660248201527f506c65617365207365742074686520726f79616c74792070657263656e74616e60448201527f67652062656c6f7720616c6c6f7765642072616e67650000000000000000000060648201526084015b60405180910390fd5b600061020f8461046e565b51905073ffffffffffffffffffffffffffffffffffffffff8116610248575060005473ffffffffffffffffffffffffffffffffffffffff165b3373ffffffffffffffffffffffffffffffffffffffff821614610313576040517f08c379a000000000000000000000000000000000000000000000000000000000815260206004820152605060248201527f4f6e6c792045524337323120636f6e7472616374206f776e6572206f72204e4660448201527f544b4559204d61726b6574706c616365206f776e657220697320616c6c6f776560648201527f6420746f2073657420526f79616c747900000000000000000000000000000000608482015260a4016101fb565b6040805160608101825273ffffffffffffffffffffffffffffffffffffffff8086168083526020808401878152338587019081528a85166000818152600390945292879020955186549086167fffffffffffffffffffffffff00000000000000000000000000000000000000009182161787559151600187015551600290950180549590941694169390931790915591517fb6b61d78ac5372b51940cf3b322ea21839c456cade69acdf1b9fb9a6f79d6ff7906103d39086815260200190565b60405180910390a350505050565b60005473ffffffffffffffffffffffffffffffffffffffff163314610462576040517f08c379a000000000000000000000000000000000000000000000000000000000815260206004820181905260248201527f4f776e61626c653a2063616c6c6572206973206e6f7420746865206f776e657260448201526064016101fb565b61046c6000610749565b565b604080516060810182526000808252602082018190529181019190915273ffffffffffffffffffffffffffffffffffffffff828116600090815260036020526040902060020154161561050e575073ffffffffffffffffffffffffffffffffffffffff9081166000908152600360209081526040918290208251606081018452815485168152600182015492810192909252600201549092169082015290565b6000610519836107be565b905073ffffffffffffffffffffffffffffffffffffffff81161561056f576040805160608101825273ffffffffffffffffffffffffffffffffffffffff9092168252600154602083015260009082015292915050565b50506040805160608101825260008082526020820181905291810191909152919050565b60005473ffffffffffffffffffffffffffffffffffffffff163314610614576040517f08c379a000000000000000000000000000000000000000000000000000000000815260206004820181905260248201527f4f776e61626c653a2063616c6c6572206973206e6f7420746865206f776e657260448201526064016101fb565b600255565b60005473ffffffffffffffffffffffffffffffffffffffff16331461069a576040517f08c379a000000000000000000000000000000000000000000000000000000000815260206004820181905260248201527f4f776e61626c653a2063616c6c6572206973206e6f7420746865206f776e657260448201526064016101fb565b73ffffffffffffffffffffffffffffffffffffffff811661073d576040517f08c379a000000000000000000000000000000000000000000000000000000000815260206004820152602660248201527f4f776e61626c653a206e6577206f776e657220697320746865207a65726f206160448201527f646472657373000000000000000000000000000000000000000000000000000060648201526084016101fb565b61074681610749565b50565b6000805473ffffffffffffffffffffffffffffffffffffffff8381167fffffffffffffffffffffffff0000000000000000000000000000000000000000831681178455604051919092169283917f8be0079c531659141344cd1fd0a4f28419497f9722a3daafe3b4186f6b6457e09190a35050565b60008173ffffffffffffffffffffffffffffffffffffffff16638da5cb5b6040518163ffffffff1660e01b815260040160206040518083038186803b15801561080657600080fd5b505afa925050508015610854575060408051601f3d9081017fffffffffffffffffffffffffffffffffffffffffffffffffffffffffffffffe016820190925261085191810190610906565b60015b61086057506000919050565b92915050565b73ffffffffffffffffffffffffffffffffffffffff8116811461074657600080fd5b60008060006060848603121561089d57600080fd5b83356108a881610866565b925060208401356108b881610866565b929592945050506040919091013590565b6000602082840312156108db57600080fd5b81356108e681610866565b9392505050565b6000602082840312156108ff57600080fd5b5035919050565b60006020828403121561091857600080fd5b81516108e68161086656fea264697066735822122066251bc40bf3ef2288dd24f2f9beb9c49f2c0350e0eb7e6b6a7508a8d5b1737464736f6c63430008090033",
  "immutableReferences": {},
  "source": "// SPDX-License-Identifier: AGPL-3.0-or-later\n\npragma solidity =0.8.9;\npragma abicoder v2;\n\nimport \"@openzeppelin/contracts/access/Ownable.sol\";\nimport \"./interface/INFTKEYMarketplaceRoyalty.sol\";\n\ncontract NFTKEYMarketplaceRoyalty is INFTKEYMarketplaceRoyalty, Ownable {\n    uint256 public defaultRoyaltyFraction = 20; // By the factor of 1000, 2%\n    uint256 public royaltyUpperLimit = 100; // By the factor of 1000, 10%\n\n    mapping(address => ERC721CollectionRoyalty) private _collectionRoyalty;\n\n    function _erc721Owner(address erc721Address)\n        private\n        view\n        returns (address)\n    {\n        try Ownable(erc721Address).owner() returns (address _contractOwner) {\n            return _contractOwner;\n        } catch {\n            return address(0);\n        }\n    }\n\n    function royalty(address erc721Address)\n        public\n        view\n        override\n        returns (ERC721CollectionRoyalty memory)\n    {\n        if (_collectionRoyalty[erc721Address].setBy != address(0)) {\n            return _collectionRoyalty[erc721Address];\n        }\n\n        address erc721Owner = _erc721Owner(erc721Address);\n        if (erc721Owner != address(0)) {\n            return\n                ERC721CollectionRoyalty(\n                    erc721Owner,\n                    defaultRoyaltyFraction,\n                    address(0)\n                );\n        }\n\n        return ERC721CollectionRoyalty(address(0), 0, address(0));\n    }\n\n    function setRoyalty(\n        address erc721Address,\n        address royaltyRecipient,\n        uint256 feeFraction\n    ) external override {\n        require(\n            feeFraction <= royaltyUpperLimit,\n            \"Please set the royalty percentange below allowed range\"\n        );\n\n        address authorisedAddress = royalty(erc721Address).recipient;\n\n        if (authorisedAddress == address(0)) {\n            authorisedAddress = owner();\n        }\n\n        require(\n            msg.sender == authorisedAddress,\n            \"Only ERC721 contract owner or NFTKEY Marketplace owner is allowed to set Royalty\"\n        );\n\n        _collectionRoyalty[erc721Address] = ERC721CollectionRoyalty(\n            royaltyRecipient,\n            feeFraction,\n            msg.sender\n        );\n\n        emit SetRoyalty(erc721Address, royaltyRecipient, feeFraction);\n    }\n\n    function updateRoyaltyUpperLimit(uint256 _newUpperLimit)\n        external\n        onlyOwner\n    {\n        royaltyUpperLimit = _newUpperLimit;\n    }\n}\n",
  "sourcePath": "/Users/fayexue/projects/nftkey-marketplace-v2/contracts/NFTKEYMarketplaceRoyalty.sol",
  "compiler": {
    "name": "solc",
    "version": "0.8.9+commit.e5eed63a.Emscripten.clang"
  },
  "schemaVersion": "3.4.3",
  "updatedAt": "2021-10-25T04:12:28.360Z",
  "devdoc": {
    "kind": "dev",
    "methods": {
      "owner()": {
        "details": "Returns the address of the current owner."
      },
      "renounceOwnership()": {
        "details": "Leaves the contract without owner. It will not be possible to call `onlyOwner` functions anymore. Can only be called by the current owner. NOTE: Renouncing ownership will leave the contract without an owner, thereby removing any functionality that is only available to the owner."
      },
      "royalty(address)": {
        "details": "Royalty fee",
        "params": {
          "erc721Address": "to read royalty"
        },
        "returns": {
          "_0": "royalty information"
        }
      },
      "transferOwnership(address)": {
        "details": "Transfers ownership of the contract to a new account (`newOwner`). Can only be called by the current owner."
      }
    },
    "version": 1
  },
  "userdoc": {
    "kind": "user",
    "methods": {},
    "version": 1
  }
}