{
  "contractName": "NFTKEYMarketplaceV2",
  "abi": [
    {
      "inputs": [
        {
          "internalType": "address",
          "name": "_paymentTokenAddress",
          "type": "address"
        }
      ],
      "stateMutability": "nonpayable",
      "type": "constructor"
    },
    {
      "anonymous": false,
      "inputs": [
        {
          "indexed": true,
          "internalType": "address",
          "name": "previousOwner",
          "type": "address"
        },
        {
          "indexed": true,
          "internalType": "address",
          "name": "newOwner",
          "type": "address"
        }
      ],
      "name": "OwnershipTransferred",
      "type": "event"
    },
    {
      "anonymous": false,
      "inputs": [
        {
          "indexed": true,
          "internalType": "address",
          "name": "erc721Address",
          "type": "address"
        },
        {
          "indexed": true,
          "internalType": "address",
          "name": "recipient",
          "type": "address"
        },
        {
          "indexed": false,
          "internalType": "uint256",
          "name": "feeFraction",
          "type": "uint256"
        }
      ],
      "name": "SetRoyalty",
      "type": "event"
    },
    {
      "anonymous": false,
      "inputs": [
        {
          "indexed": true,
          "internalType": "address",
          "name": "erc721Address",
          "type": "address"
        },
        {
          "indexed": true,
          "internalType": "uint256",
          "name": "tokenId",
          "type": "uint256"
        },
        {
          "indexed": true,
          "internalType": "address",
          "name": "seller",
          "type": "address"
        },
        {
          "components": [
            {
              "internalType": "uint256",
              "name": "tokenId",
              "type": "uint256"
            },
            {
              "internalType": "uint256",
              "name": "value",
              "type": "uint256"
            },
            {
              "internalType": "address",
              "name": "bidder",
              "type": "address"
            },
            {
              "internalType": "uint256",
              "name": "expireTimestamp",
              "type": "uint256"
            }
          ],
          "indexed": false,
          "internalType": "struct INFTKEYMarketplaceV2.Bid",
          "name": "bid",
          "type": "tuple"
        },
        {
          "indexed": false,
          "internalType": "uint256",
          "name": "serviceFee",
          "type": "uint256"
        },
        {
          "indexed": false,
          "internalType": "uint256",
          "name": "royaltyFee",
          "type": "uint256"
        }
      ],
      "name": "TokenBidAccepted",
      "type": "event"
    },
    {
      "anonymous": false,
      "inputs": [
        {
          "indexed": true,
          "internalType": "address",
          "name": "erc721Address",
          "type": "address"
        },
        {
          "indexed": true,
          "internalType": "uint256",
          "name": "tokenId",
          "type": "uint256"
        },
        {
          "components": [
            {
              "internalType": "uint256",
              "name": "tokenId",
              "type": "uint256"
            },
            {
              "internalType": "uint256",
              "name": "value",
              "type": "uint256"
            },
            {
              "internalType": "address",
              "name": "bidder",
              "type": "address"
            },
            {
              "internalType": "uint256",
              "name": "expireTimestamp",
              "type": "uint256"
            }
          ],
          "indexed": false,
          "internalType": "struct INFTKEYMarketplaceV2.Bid",
          "name": "bid",
          "type": "tuple"
        }
      ],
      "name": "TokenBidEntered",
      "type": "event"
    },
    {
      "anonymous": false,
      "inputs": [
        {
          "indexed": true,
          "internalType": "address",
          "name": "erc721Address",
          "type": "address"
        },
        {
          "indexed": true,
          "internalType": "uint256",
          "name": "tokenId",
          "type": "uint256"
        },
        {
          "components": [
            {
              "internalType": "uint256",
              "name": "tokenId",
              "type": "uint256"
            },
            {
              "internalType": "uint256",
              "name": "value",
              "type": "uint256"
            },
            {
              "internalType": "address",
              "name": "bidder",
              "type": "address"
            },
            {
              "internalType": "uint256",
              "name": "expireTimestamp",
              "type": "uint256"
            }
          ],
          "indexed": false,
          "internalType": "struct INFTKEYMarketplaceV2.Bid",
          "name": "bid",
          "type": "tuple"
        }
      ],
      "name": "TokenBidWithdrawn",
      "type": "event"
    },
    {
      "anonymous": false,
      "inputs": [
        {
          "indexed": true,
          "internalType": "address",
          "name": "erc721Address",
          "type": "address"
        },
        {
          "indexed": true,
          "internalType": "uint256",
          "name": "tokenId",
          "type": "uint256"
        },
        {
          "indexed": true,
          "internalType": "address",
          "name": "buyer",
          "type": "address"
        },
        {
          "components": [
            {
              "internalType": "uint256",
              "name": "tokenId",
              "type": "uint256"
            },
            {
              "internalType": "uint256",
              "name": "value",
              "type": "uint256"
            },
            {
              "internalType": "address",
              "name": "seller",
              "type": "address"
            },
            {
              "internalType": "uint256",
              "name": "expireTimestamp",
              "type": "uint256"
            }
          ],
          "indexed": false,
          "internalType": "struct INFTKEYMarketplaceV2.Listing",
          "name": "listing",
          "type": "tuple"
        },
        {
          "indexed": false,
          "internalType": "uint256",
          "name": "serviceFee",
          "type": "uint256"
        },
        {
          "indexed": false,
          "internalType": "uint256",
          "name": "royaltyFee",
          "type": "uint256"
        }
      ],
      "name": "TokenBought",
      "type": "event"
    },
    {
      "anonymous": false,
      "inputs": [
        {
          "indexed": true,
          "internalType": "address",
          "name": "erc721Address",
          "type": "address"
        },
        {
          "indexed": true,
          "internalType": "uint256",
          "name": "tokenId",
          "type": "uint256"
        },
        {
          "components": [
            {
              "internalType": "uint256",
              "name": "tokenId",
              "type": "uint256"
            },
            {
              "internalType": "uint256",
              "name": "value",
              "type": "uint256"
            },
            {
              "internalType": "address",
              "name": "seller",
              "type": "address"
            },
            {
              "internalType": "uint256",
              "name": "expireTimestamp",
              "type": "uint256"
            }
          ],
          "indexed": false,
          "internalType": "struct INFTKEYMarketplaceV2.Listing",
          "name": "listing",
          "type": "tuple"
        }
      ],
      "name": "TokenDelisted",
      "type": "event"
    },
    {
      "anonymous": false,
      "inputs": [
        {
          "indexed": true,
          "internalType": "address",
          "name": "erc721Address",
          "type": "address"
        },
        {
          "indexed": true,
          "internalType": "uint256",
          "name": "tokenId",
          "type": "uint256"
        },
        {
          "components": [
            {
              "internalType": "uint256",
              "name": "tokenId",
              "type": "uint256"
            },
            {
              "internalType": "uint256",
              "name": "value",
              "type": "uint256"
            },
            {
              "internalType": "address",
              "name": "seller",
              "type": "address"
            },
            {
              "internalType": "uint256",
              "name": "expireTimestamp",
              "type": "uint256"
            }
          ],
          "indexed": false,
          "internalType": "struct INFTKEYMarketplaceV2.Listing",
          "name": "listing",
          "type": "tuple"
        }
      ],
      "name": "TokenListed",
      "type": "event"
    },
    {
      "inputs": [],
      "name": "defaultRoyaltyFraction",
      "outputs": [
        {
          "internalType": "uint256",
          "name": "",
          "type": "uint256"
        }
      ],
      "stateMutability": "view",
      "type": "function"
    },
    {
      "inputs": [],
      "name": "owner",
      "outputs": [
        {
          "internalType": "address",
          "name": "",
          "type": "address"
        }
      ],
      "stateMutability": "view",
      "type": "function"
    },
    {
      "inputs": [],
      "name": "renounceOwnership",
      "outputs": [],
      "stateMutability": "nonpayable",
      "type": "function"
    },
    {
      "inputs": [
        {
          "internalType": "address",
          "name": "erc721Address",
          "type": "address"
        }
      ],
      "name": "royalty",
      "outputs": [
        {
          "components": [
            {
              "internalType": "address",
              "name": "recipient",
              "type": "address"
            },
            {
              "internalType": "uint256",
              "name": "feeFraction",
              "type": "uint256"
            },
            {
              "internalType": "address",
              "name": "setBy",
              "type": "address"
            }
          ],
          "internalType": "struct INFTKEYMarketplaceRoyalty.ERC721CollectionRoyalty",
          "name": "",
          "type": "tuple"
        }
      ],
      "stateMutability": "view",
      "type": "function"
    },
    {
      "inputs": [],
      "name": "royaltyUpperLimit",
      "outputs": [
        {
          "internalType": "uint256",
          "name": "",
          "type": "uint256"
        }
      ],
      "stateMutability": "view",
      "type": "function"
    },
    {
      "inputs": [
        {
          "internalType": "address",
          "name": "erc721Address",
          "type": "address"
        },
        {
          "internalType": "address",
          "name": "royaltyRecipient",
          "type": "address"
        },
        {
          "internalType": "uint256",
          "name": "feeFraction",
          "type": "uint256"
        }
      ],
      "name": "setRoyalty",
      "outputs": [],
      "stateMutability": "nonpayable",
      "type": "function"
    },
    {
      "inputs": [
        {
          "internalType": "address",
          "name": "newOwner",
          "type": "address"
        }
      ],
      "name": "transferOwnership",
      "outputs": [],
      "stateMutability": "nonpayable",
      "type": "function"
    },
    {
      "inputs": [
        {
          "internalType": "uint256",
          "name": "_newUpperLimit",
          "type": "uint256"
        }
      ],
      "name": "updateRoyaltyUpperLimit",
      "outputs": [],
      "stateMutability": "nonpayable",
      "type": "function"
    },
    {
      "inputs": [
        {
          "internalType": "address",
          "name": "erc721Address",
          "type": "address"
        },
        {
          "internalType": "uint256",
          "name": "tokenId",
          "type": "uint256"
        }
      ],
      "name": "getTokenListing",
      "outputs": [
        {
          "components": [
            {
              "internalType": "uint256",
              "name": "tokenId",
              "type": "uint256"
            },
            {
              "internalType": "uint256",
              "name": "value",
              "type": "uint256"
            },
            {
              "internalType": "address",
              "name": "seller",
              "type": "address"
            },
            {
              "internalType": "uint256",
              "name": "expireTimestamp",
              "type": "uint256"
            }
          ],
          "internalType": "struct INFTKEYMarketplaceV2.Listing",
          "name": "validListing",
          "type": "tuple"
        }
      ],
      "stateMutability": "view",
      "type": "function"
    },
    {
      "inputs": [
        {
          "internalType": "address",
          "name": "erc721Address",
          "type": "address"
        },
        {
          "internalType": "uint256",
          "name": "from",
          "type": "uint256"
        },
        {
          "internalType": "uint256",
          "name": "size",
          "type": "uint256"
        }
      ],
      "name": "getTokenListings",
      "outputs": [
        {
          "components": [
            {
              "internalType": "uint256",
              "name": "tokenId",
              "type": "uint256"
            },
            {
              "internalType": "uint256",
              "name": "value",
              "type": "uint256"
            },
            {
              "internalType": "address",
              "name": "seller",
              "type": "address"
            },
            {
              "internalType": "uint256",
              "name": "expireTimestamp",
              "type": "uint256"
            }
          ],
          "internalType": "struct INFTKEYMarketplaceV2.Listing[]",
          "name": "listings",
          "type": "tuple[]"
        }
      ],
      "stateMutability": "view",
      "type": "function"
    },
    {
      "inputs": [
        {
          "internalType": "address",
          "name": "erc721Address",
          "type": "address"
        },
        {
          "internalType": "uint256",
          "name": "tokenId",
          "type": "uint256"
        },
        {
          "internalType": "address",
          "name": "bidder",
          "type": "address"
        }
      ],
      "name": "getBidderTokenBid",
      "outputs": [
        {
          "components": [
            {
              "internalType": "uint256",
              "name": "tokenId",
              "type": "uint256"
            },
            {
              "internalType": "uint256",
              "name": "value",
              "type": "uint256"
            },
            {
              "internalType": "address",
              "name": "bidder",
              "type": "address"
            },
            {
              "internalType": "uint256",
              "name": "expireTimestamp",
              "type": "uint256"
            }
          ],
          "internalType": "struct INFTKEYMarketplaceV2.Bid",
          "name": "validBid",
          "type": "tuple"
        }
      ],
      "stateMutability": "view",
      "type": "function"
    },
    {
      "inputs": [
        {
          "internalType": "address",
          "name": "erc721Address",
          "type": "address"
        },
        {
          "internalType": "uint256",
          "name": "tokenId",
          "type": "uint256"
        }
      ],
      "name": "getTokenBids",
      "outputs": [
        {
          "components": [
            {
              "internalType": "uint256",
              "name": "tokenId",
              "type": "uint256"
            },
            {
              "internalType": "uint256",
              "name": "value",
              "type": "uint256"
            },
            {
              "internalType": "address",
              "name": "bidder",
              "type": "address"
            },
            {
              "internalType": "uint256",
              "name": "expireTimestamp",
              "type": "uint256"
            }
          ],
          "internalType": "struct INFTKEYMarketplaceV2.Bid[]",
          "name": "bids",
          "type": "tuple[]"
        }
      ],
      "stateMutability": "view",
      "type": "function"
    },
    {
      "inputs": [
        {
          "internalType": "address",
          "name": "erc721Address",
          "type": "address"
        },
        {
          "internalType": "uint256",
          "name": "tokenId",
          "type": "uint256"
        }
      ],
      "name": "getTokenHighestBid",
      "outputs": [
        {
          "components": [
            {
              "internalType": "uint256",
              "name": "tokenId",
              "type": "uint256"
            },
            {
              "internalType": "uint256",
              "name": "value",
              "type": "uint256"
            },
            {
              "internalType": "address",
              "name": "bidder",
              "type": "address"
            },
            {
              "internalType": "uint256",
              "name": "expireTimestamp",
              "type": "uint256"
            }
          ],
          "internalType": "struct INFTKEYMarketplaceV2.Bid",
          "name": "highestBid",
          "type": "tuple"
        }
      ],
      "stateMutability": "view",
      "type": "function"
    },
    {
      "inputs": [
        {
          "internalType": "address",
          "name": "erc721Address",
          "type": "address"
        },
        {
          "internalType": "uint256",
          "name": "from",
          "type": "uint256"
        },
        {
          "internalType": "uint256",
          "name": "size",
          "type": "uint256"
        }
      ],
      "name": "getTokenHighestBids",
      "outputs": [
        {
          "components": [
            {
              "internalType": "uint256",
              "name": "tokenId",
              "type": "uint256"
            },
            {
              "internalType": "uint256",
              "name": "value",
              "type": "uint256"
            },
            {
              "internalType": "address",
              "name": "bidder",
              "type": "address"
            },
            {
              "internalType": "uint256",
              "name": "expireTimestamp",
              "type": "uint256"
            }
          ],
          "internalType": "struct INFTKEYMarketplaceV2.Bid[]",
          "name": "highestBids",
          "type": "tuple[]"
        }
      ],
      "stateMutability": "view",
      "type": "function"
    },
    {
      "inputs": [
        {
          "internalType": "address",
          "name": "erc721Address",
          "type": "address"
        },
        {
          "internalType": "address",
          "name": "bidder",
          "type": "address"
        },
        {
          "internalType": "uint256",
          "name": "from",
          "type": "uint256"
        },
        {
          "internalType": "uint256",
          "name": "size",
          "type": "uint256"
        }
      ],
      "name": "getBidderBids",
      "outputs": [
        {
          "components": [
            {
              "internalType": "uint256",
              "name": "tokenId",
              "type": "uint256"
            },
            {
              "internalType": "uint256",
              "name": "value",
              "type": "uint256"
            },
            {
              "internalType": "address",
              "name": "bidder",
              "type": "address"
            },
            {
              "internalType": "uint256",
              "name": "expireTimestamp",
              "type": "uint256"
            }
          ],
          "internalType": "struct INFTKEYMarketplaceV2.Bid[]",
          "name": "bidderBids",
          "type": "tuple[]"
        }
      ],
      "stateMutability": "view",
      "type": "function"
    },
    {
      "inputs": [
        {
          "internalType": "address",
          "name": "erc721Address",
          "type": "address"
        },
        {
          "internalType": "uint256",
          "name": "tokenId",
          "type": "uint256"
        },
        {
          "internalType": "uint256",
          "name": "value",
          "type": "uint256"
        },
        {
          "internalType": "uint256",
          "name": "expireTimestamp",
          "type": "uint256"
        }
      ],
      "name": "listToken",
      "outputs": [],
      "stateMutability": "nonpayable",
      "type": "function"
    },
    {
      "inputs": [
        {
          "internalType": "address",
          "name": "erc721Address",
          "type": "address"
        },
        {
          "internalType": "uint256",
          "name": "tokenId",
          "type": "uint256"
        }
      ],
      "name": "delistToken",
      "outputs": [],
      "stateMutability": "nonpayable",
      "type": "function"
    },
    {
      "inputs": [
        {
          "internalType": "address",
          "name": "erc721Address",
          "type": "address"
        },
        {
          "internalType": "uint256",
          "name": "tokenId",
          "type": "uint256"
        }
      ],
      "name": "buyToken",
      "outputs": [],
      "stateMutability": "payable",
      "type": "function"
    },
    {
      "inputs": [
        {
          "internalType": "address",
          "name": "erc721Address",
          "type": "address"
        },
        {
          "internalType": "uint256",
          "name": "tokenId",
          "type": "uint256"
        },
        {
          "internalType": "uint256",
          "name": "bidPrice",
          "type": "uint256"
        },
        {
          "internalType": "uint256",
          "name": "expireTimestamp",
          "type": "uint256"
        }
      ],
      "name": "enterBidForToken",
      "outputs": [],
      "stateMutability": "nonpayable",
      "type": "function"
    },
    {
      "inputs": [
        {
          "internalType": "address",
          "name": "erc721Address",
          "type": "address"
        },
        {
          "internalType": "uint256",
          "name": "tokenId",
          "type": "uint256"
        }
      ],
      "name": "withdrawBidForToken",
      "outputs": [],
      "stateMutability": "nonpayable",
      "type": "function"
    },
    {
      "inputs": [
        {
          "internalType": "address",
          "name": "erc721Address",
          "type": "address"
        },
        {
          "internalType": "uint256",
          "name": "tokenId",
          "type": "uint256"
        },
        {
          "internalType": "address",
          "name": "bidder",
          "type": "address"
        },
        {
          "internalType": "uint256",
          "name": "value",
          "type": "uint256"
        }
      ],
      "name": "acceptBidForToken",
      "outputs": [],
      "stateMutability": "nonpayable",
      "type": "function"
    },
    {
      "inputs": [],
      "name": "isTradingEnabled",
      "outputs": [
        {
          "internalType": "bool",
          "name": "",
          "type": "bool"
        }
      ],
      "stateMutability": "view",
      "type": "function"
    },
    {
      "inputs": [
        {
          "internalType": "bool",
          "name": "enabled",
          "type": "bool"
        }
      ],
      "name": "changeMarketplaceStatus",
      "outputs": [],
      "stateMutability": "nonpayable",
      "type": "function"
    },
    {
      "inputs": [],
      "name": "actionTimeOutRangeMin",
      "outputs": [
        {
          "internalType": "uint256",
          "name": "",
          "type": "uint256"
        }
      ],
      "stateMutability": "view",
      "type": "function"
    },
    {
      "inputs": [],
      "name": "actionTimeOutRangeMax",
      "outputs": [
        {
          "internalType": "uint256",
          "name": "",
          "type": "uint256"
        }
      ],
      "stateMutability": "view",
      "type": "function"
    },
    {
      "inputs": [
        {
          "internalType": "uint256",
          "name": "timeInSec",
          "type": "uint256"
        }
      ],
      "name": "changeMinActionTimeLimit",
      "outputs": [],
      "stateMutability": "nonpayable",
      "type": "function"
    },
    {
      "inputs": [
        {
          "internalType": "uint256",
          "name": "timeInSec",
          "type": "uint256"
        }
      ],
      "name": "changeMaxActionTimeLimit",
      "outputs": [],
      "stateMutability": "nonpayable",
      "type": "function"
    },
    {
      "inputs": [],
      "name": "serviceFee",
      "outputs": [
        {
          "internalType": "uint8",
          "name": "",
          "type": "uint8"
        }
      ],
      "stateMutability": "view",
      "type": "function"
    },
    {
      "inputs": [
        {
          "internalType": "uint8",
          "name": "serviceFeeFraction_",
          "type": "uint8"
        }
      ],
      "name": "changeSeriveFee",
      "outputs": [],
      "stateMutability": "nonpayable",
      "type": "function"
    }
  ],
  "bytecode": "0x60a0604052601460015560646002556005805461ffff19166114011790556107086006556301e133806007553480156200003857600080fd5b506040516200439b3803806200439b8339810160408190526200005b91620000cd565b62000066336200007d565b60016004556001600160a01b0316608052620000ff565b600080546001600160a01b038381166001600160a01b0319831681178455604051919092169283917f8be0079c531659141344cd1fd0a4f28419497f9722a3daafe3b4186f6b6457e09190a35050565b600060208284031215620000e057600080fd5b81516001600160a01b0381168114620000f857600080fd5b9392505050565b608051614264620001376000396000818161275d015281816127c30152818161283501528181612f73015261304801526142646000f3fe6080604052600436106101c25760003560e01c8063861b69d6116100f7578063b6be53ba11610095578063ee8ef34d11610064578063ee8ef34d14610546578063f2fde38b1461055c578063f8ad6f621461057c578063feb884061461059c57600080fd5b8063b6be53ba146104c6578063cdea490d146104e6578063cf6ac95314610506578063eb3e87b91461052657600080fd5b806390bc4e37116100d157806390bc4e371461044657806396f9716414610466578063a3c0b5f014610486578063b43d901d146104a657600080fd5b8063861b69d61461038a5780638abdf5aa146103e75780638da5cb5b1461041157600080fd5b806345105cb11161016457806366c1e8bf1161013e57806366c1e8bf1461032c57806368f8fc101461034c5780636d0042b81461035f578063715018a61461037557600080fd5b806345105cb1146102ca578063453dfc50146102f757806355c338aa1461030c57600080fd5b80632426fc24116101a05780632426fc241461023e5780632c20d1b41461025e57806333549d3d1461028b5780634313e9bd146102aa57600080fd5b80630609d095146101c7578063064a59d0146101e95780631f77a82014610211575b600080fd5b3480156101d357600080fd5b506101e76101e2366004613c10565b6105bc565b005b3480156101f557600080fd5b5060055460ff1660405190151581526020015b60405180910390f35b34801561021d57600080fd5b5061023161022c366004613c10565b610721565b6040516102089190613c3c565b34801561024a57600080fd5b506101e7610259366004613c7d565b6108c1565b34801561026a57600080fd5b5061027e610279366004613c96565b610947565b6040516102089190613ccb565b34801561029757600080fd5b506006545b604051908152602001610208565b3480156102b657600080fd5b506101e76102c5366004613d50565b610ac4565b3480156102d657600080fd5b506102ea6102e5366004613c96565b610e40565b6040516102089190613d8b565b34801561030357600080fd5b5060075461029c565b34801561031857600080fd5b506101e7610327366004613e04565b61103a565b34801561033857600080fd5b5061027e610347366004613c10565b6112a9565b6101e761035a366004613c10565b61147a565b34801561036b57600080fd5b5061029c60015481565b34801561038157600080fd5b506101e7611918565b34801561039657600080fd5b506103aa6103a5366004613e45565b6119a5565b60408051825173ffffffffffffffffffffffffffffffffffffffff9081168252602080850151908301529282015190921690820152606001610208565b3480156103f357600080fd5b50600554610100900460ff1660405160ff9091168152602001610208565b34801561041d57600080fd5b5060005460405173ffffffffffffffffffffffffffffffffffffffff9091168152602001610208565b34801561045257600080fd5b50610231610461366004613e62565b611aca565b34801561047257600080fd5b50610231610481366004613c10565b611b95565b34801561049257600080fd5b506101e76104a1366004613c7d565b611c56565b3480156104b257600080fd5b506101e76104c1366004613d50565b611cdc565b3480156104d257600080fd5b506101e76104e1366004613eb2565b61211e565b3480156104f257600080fd5b506101e7610501366004613c7d565b6121d0565b34801561051257600080fd5b5061027e610521366004613ecf565b612256565b34801561053257600080fd5b506101e7610541366004613f15565b6123da565b34801561055257600080fd5b5061029c60025481565b34801561056857600080fd5b506101e7610577366004613e45565b612999565b34801561058857600080fd5b506101e7610597366004613f5d565b612ac9565b3480156105a857600080fd5b506101e76105b7366004613c10565b612c17565b73ffffffffffffffffffffffffffffffffffffffff8083166000908152600860209081526040808320858452600501825280832033808552600291820184529382902082516080810184528154815260018201549481019490945290810154909416908201819052600390930154606082015291146106c2576040517f08c379a000000000000000000000000000000000000000000000000000000000815260206004820152602b60248201527f54686973206164647265737320646f65736e2774206861766520626964206f6e60448201527f207468697320746f6b656e00000000000000000000000000000000000000000060648201526084015b60405180910390fd5b818373ffffffffffffffffffffffffffffffffffffffff167fef9d84bc41d1a54361c4bf46f5e11b7c90a3fcb4e604b1b24e0e35d0fa371604836040516107099190613c3c565b60405180910390a361071c838333612d95565b505050565b61076260405180608001604052806000815260200160008152602001600073ffffffffffffffffffffffffffffffffffffffff168152602001600081525090565b5060408051608081018252828152600060208083018290528284018290526060830182905273ffffffffffffffffffffffffffffffffffffffff861682526008815283822085835260050190529182209091906107be90612ede565b905060005b818110156108b95773ffffffffffffffffffffffffffffffffffffffff8516600090815260086020908152604080832087845260050190915281206108089083612eee565b73ffffffffffffffffffffffffffffffffffffffff80881660009081526008602090815260408083208a845260050182528083208486168452600290810183529281902081516080810183528154815260018201549381019390935292830154909316928101929092526003015460608201529091506108888782612f01565b801561089b575084602001518160200151115b156108a4578094505b505080806108b190613faf565b9150506107c3565b505092915050565b60005473ffffffffffffffffffffffffffffffffffffffff163314610942576040517f08c379a000000000000000000000000000000000000000000000000000000000815260206004820181905260248201527f4f776e61626c653a2063616c6c6572206973206e6f7420746865206f776e657260448201526064016106b9565b600655565b73ffffffffffffffffffffffffffffffffffffffff831660009081526008602052604081206060919061097c90600301612ede565b9050808410801561098d5750600083115b15610abc57828161099e8287613fe8565b11156109b1576109ae8583614000565b90505b8067ffffffffffffffff8111156109ca576109ca614017565b604051908082528060200260200182016040528015610a3c57816020015b610a2960405180608001604052806000815260200160008152602001600073ffffffffffffffffffffffffffffffffffffffff168152602001600081525090565b8152602001906001900390816109e85790505b50925060005b81811015610ab957610a898761022c610a5b8985613fe8565b73ffffffffffffffffffffffffffffffffffffffff8b16600090815260086020526040902060030190612eee565b848281518110610a9b57610a9b614046565b60200260200101819052508080610ab190613faf565b915050610a42565b50505b509392505050565b60055460ff16610b30576040517f08c379a000000000000000000000000000000000000000000000000000000000815260206004820152601f60248201527f4c697374696e6720616e642062696420617265206e6f7420656e61626c65640060448201526064016106b9565b6006548190610b3f4283614000565b1015610bcc576040517f08c379a0000000000000000000000000000000000000000000000000000000008152602060048201526024808201527f506c6561736520656e7465722061206c6f6e67657220706572696f64206f662060448201527f74696d650000000000000000000000000000000000000000000000000000000060648201526084016106b9565b600754610bd94283614000565b1115610c67576040517f08c379a000000000000000000000000000000000000000000000000000000000815260206004820152602560248201527f506c6561736520656e74657220612073686f7274657220706572696f64206f6660448201527f2074696d6500000000000000000000000000000000000000000000000000000060648201526084016106b9565b6040805160808101825285815260208101859052339181019190915260608101839052610c948682612f01565b610cfa576040517f08c379a000000000000000000000000000000000000000000000000000000000815260206004820152601060248201527f426964206973206e6f742076616c69640000000000000000000000000000000060448201526064016106b9565b73ffffffffffffffffffffffffffffffffffffffff86166000908152600860205260409020610d2c90600301866130f4565b5073ffffffffffffffffffffffffffffffffffffffff861660009081526008602090815260408083208884526005019091529020610d6a9033613100565b5073ffffffffffffffffffffffffffffffffffffffff86811660008181526008602090815260408083208a845260050182528083203384526002908101835292819020865181559186015160018301558581015192820180547fffffffffffffffffffffffff0000000000000000000000000000000000000000169390951692909217909355606084015160039093019290925590518691907fc547e24584f4dd2da70009d5141bf4344b59a0ce26cd8f7c5d5a28151a11f21990610e30908590613c3c565b60405180910390a3505050505050565b73ffffffffffffffffffffffffffffffffffffffff8316600090815260086020526040812060609190610e7290612ede565b90508084108015610e835750600083115b15610abc578281610e948287613fe8565b1115610ea757610ea48583614000565b90505b8067ffffffffffffffff811115610ec057610ec0614017565b604051908082528060200260200182016040528015610f3257816020015b610f1f60405180608001604052806000815260200160008152602001600073ffffffffffffffffffffffffffffffffffffffff168152602001600081525090565b815260200190600190039081610ede5790505b50925060005b81811015610ab95773ffffffffffffffffffffffffffffffffffffffff8716600090815260086020526040812060020181610fa1610f768a86613fe8565b73ffffffffffffffffffffffffffffffffffffffff8c16600090815260086020526040902090612eee565b81526020808201929092526040908101600020815160808101835281548152600182015493810193909352600281015473ffffffffffffffffffffffffffffffffffffffff169183019190915260030154606082015290506110038882613122565b15611027578085838151811061101b5761101b614046565b60200260200101819052505b508061103281613faf565b915050610f38565b6002548111156110cc576040517f08c379a000000000000000000000000000000000000000000000000000000000815260206004820152603660248201527f506c65617365207365742074686520726f79616c74792070657263656e74616e60448201527f67652062656c6f7720616c6c6f7765642072616e67650000000000000000000060648201526084016106b9565b60006110d7846119a5565b51905073ffffffffffffffffffffffffffffffffffffffff8116611110575060005473ffffffffffffffffffffffffffffffffffffffff165b3373ffffffffffffffffffffffffffffffffffffffff8216146111db576040517f08c379a000000000000000000000000000000000000000000000000000000000815260206004820152605060248201527f4f6e6c792045524337323120636f6e7472616374206f776e6572206f72204e4660448201527f544b4559204d61726b6574706c616365206f776e657220697320616c6c6f776560648201527f6420746f2073657420526f79616c747900000000000000000000000000000000608482015260a4016106b9565b6040805160608101825273ffffffffffffffffffffffffffffffffffffffff8086168083526020808401878152338587019081528a85166000818152600390945292879020955186549086167fffffffffffffffffffffffff00000000000000000000000000000000000000009182161787559151600187015551600290950180549590941694169390931790915591517fb6b61d78ac5372b51940cf3b322ea21839c456cade69acdf1b9fb9a6f79d6ff79061129b9086815260200190565b60405180910390a350505050565b73ffffffffffffffffffffffffffffffffffffffff821660009081526008602090815260408083208484526005019091528120606091906112e990612ede565b90508067ffffffffffffffff81111561130457611304614017565b60405190808252806020026020018201604052801561137657816020015b61136360405180608001604052806000815260200160008152602001600073ffffffffffffffffffffffffffffffffffffffff168152602001600081525090565b8152602001906001900390816113225790505b50915060005b818110156108b95773ffffffffffffffffffffffffffffffffffffffff8516600090815260086020908152604080832087845260050190915281206113c19083612eee565b73ffffffffffffffffffffffffffffffffffffffff80881660009081526008602090815260408083208a845260050182528083208486168452600290810183529281902081516080810183528154815260018201549381019390935292830154909316928101929092526003015460608201529091506114418782612f01565b15611465578085848151811061145957611459614046565b60200260200101819052505b5050808061147290613faf565b91505061137c565b600260045414156114e7576040517f08c379a000000000000000000000000000000000000000000000000000000000815260206004820152601f60248201527f5265656e7472616e637947756172643a207265656e7472616e742063616c6c0060448201526064016106b9565b600260045560006114f88383611b95565b604081015190915073ffffffffffffffffffffffffffffffffffffffff1661157c576040517f08c379a000000000000000000000000000000000000000000000000000000000815260206004820152601560248201527f546f6b656e206973206e6f7420666f722073616c65000000000000000000000060448201526064016106b9565b611587838333613160565b15611614576040517f08c379a000000000000000000000000000000000000000000000000000000000815260206004820152602560248201527f546f6b656e206f776e65722063616e277420627579207468656972206f776e2060448201527f746f6b656e00000000000000000000000000000000000000000000000000000060648201526084016106b9565b80602001513410156116a8576040517f08c379a000000000000000000000000000000000000000000000000000000000815260206004820152602260248201527f5468652076616c75652073656e642069732062656c6f772073616c652070726960448201527f636500000000000000000000000000000000000000000000000000000000000060648201526084016106b9565b60006116b3846119a5565b51905060006116c1856119a5565b6020015160055490915060009082906116e490610100900460ff166103e8614075565b61ffff166116f29190613fe8565b600554602086015161170c91610100900460ff169061409b565b61171691906140d8565b600554909150600090839061173590610100900460ff166103e8614075565b61ffff166117439190613fe8565b838660200151611753919061409b565b61175d91906140d8565b905060008161176c8434614000565b6117769190614000565b9050611786866040015182613261565b6117ae6117a860005473ffffffffffffffffffffffffffffffffffffffff1690565b84613261565b73ffffffffffffffffffffffffffffffffffffffff8516158015906117d35750600082115b156117e2576117e28583613261565b6040805187518152602080890151908201528782015173ffffffffffffffffffffffffffffffffffffffff908116828401526060808a0151908301526080820186905260a08201859052915133928a92908c16917f50a3cf2b1df7bd2994e752563ce6f85769fb50da66bbb9a9912d2d6066a6b4da9181900360c00190a460408681015190517f42842e0e00000000000000000000000000000000000000000000000000000000815273ffffffffffffffffffffffffffffffffffffffff918216600482015233602482015260448101899052908916906342842e0e90606401600060405180830381600087803b1580156118dc57600080fd5b505af11580156118f0573d6000803e3d6000fd5b505050506118fe88886133bb565b611909888833612d95565b50506001600455505050505050565b60005473ffffffffffffffffffffffffffffffffffffffff163314611999576040517f08c379a000000000000000000000000000000000000000000000000000000000815260206004820181905260248201527f4f776e61626c653a2063616c6c6572206973206e6f7420746865206f776e657260448201526064016106b9565b6119a3600061346f565b565b604080516060810182526000808252602082018190529181019190915273ffffffffffffffffffffffffffffffffffffffff8281166000908152600360205260409020600201541615611a45575073ffffffffffffffffffffffffffffffffffffffff9081166000908152600360209081526040918290208251606081018452815485168152600182015492810192909252600201549092169082015290565b6000611a50836134e4565b905073ffffffffffffffffffffffffffffffffffffffff811615611aa6576040805160608101825273ffffffffffffffffffffffffffffffffffffffff9092168252600154602083015260009082015292915050565b50506040805160608101825260008082526020820181905291810191909152919050565b611b0b60405180608001604052806000815260200160008152602001600073ffffffffffffffffffffffffffffffffffffffff168152602001600081525090565b73ffffffffffffffffffffffffffffffffffffffff80851660009081526008602090815260408083208784526005018252808320868516845260029081018352928190208151608081018352815481526001820154938101939093529283015490931692810192909252600301546060820152611b888582612f01565b15610abc57949350505050565b611bd660405180608001604052806000815260200160008152602001600073ffffffffffffffffffffffffffffffffffffffff168152602001600081525090565b73ffffffffffffffffffffffffffffffffffffffff808416600090815260086020908152604080832086845260029081018352928190208151608081018352815481526001820154938101939093529283015490931692810192909252600301546060820152611c468482613122565b15611c4f578091505b5092915050565b60005473ffffffffffffffffffffffffffffffffffffffff163314611cd7576040517f08c379a000000000000000000000000000000000000000000000000000000000815260206004820181905260248201527f4f776e61626c653a2063616c6c6572206973206e6f7420746865206f776e657260448201526064016106b9565b600755565b60055460ff16611d48576040517f08c379a000000000000000000000000000000000000000000000000000000000815260206004820152601f60248201527f4c697374696e6720616e642062696420617265206e6f7420656e61626c65640060448201526064016106b9565b6006548190611d574283614000565b1015611de4576040517f08c379a0000000000000000000000000000000000000000000000000000000008152602060048201526024808201527f506c6561736520656e7465722061206c6f6e67657220706572696f64206f662060448201527f74696d650000000000000000000000000000000000000000000000000000000060648201526084016106b9565b600754611df14283614000565b1115611e7f576040517f08c379a000000000000000000000000000000000000000000000000000000000815260206004820152602560248201527f506c6561736520656e74657220612073686f7274657220706572696f64206f6660448201527f2074696d6500000000000000000000000000000000000000000000000000000060648201526084016106b9565b60008311611f0f576040517f08c379a000000000000000000000000000000000000000000000000000000000815260206004820152603860248201527f506c65617365206c69737420666f72206d6f7265207468616e2030206f72207560448201527f736520746865207472616e736665722066756e6374696f6e000000000000000060648201526084016106b9565b611f1a858533613160565b611f80576040517f08c379a000000000000000000000000000000000000000000000000000000000815260206004820152601f60248201527f4f6e6c7920746f6b656e206f776e65722063616e206c69737420746f6b656e0060448201526064016106b9565b611f8a8585613586565b80611f9a5750611f9a853361366e565b612026576040517f08c379a000000000000000000000000000000000000000000000000000000000815260206004820152603660248201527f5468697320746f6b656e206973206e6f7420616c6c6f77656420746f2074726160448201527f6e73666572206279207468697320636f6e74726163740000000000000000000060648201526084016106b9565b604080516080810182528581526020808201868152338385019081526060840187815273ffffffffffffffffffffffffffffffffffffffff8b8116600081815260088088528982208e835260028082018a529a83208a51815597516001890155955199870180547fffffffffffffffffffffffff0000000000000000000000000000000000000000169a909416999099179092559151600390940193909355909152929052906120d690866130f4565b50848673ffffffffffffffffffffffffffffffffffffffff167ffc8bd63d1c4480fdf7501f95b3dd0ba53542a02abbab92c0f579468341741abd83604051610e309190613c3c565b60005473ffffffffffffffffffffffffffffffffffffffff16331461219f576040517f08c379a000000000000000000000000000000000000000000000000000000000815260206004820181905260248201527f4f776e61626c653a2063616c6c6572206973206e6f7420746865206f776e657260448201526064016106b9565b600580547fffffffffffffffffffffffffffffffffffffffffffffffffffffffffffffff0016911515919091179055565b60005473ffffffffffffffffffffffffffffffffffffffff163314612251576040517f08c379a000000000000000000000000000000000000000000000000000000000815260206004820181905260248201527f4f776e61626c653a2063616c6c6572206973206e6f7420746865206f776e657260448201526064016106b9565b600255565b73ffffffffffffffffffffffffffffffffffffffff841660009081526008602052604081206060919061228b90600301612ede565b9050808410801561229c5750600083115b156123d15782816122ad8287613fe8565b11156122c0576122bd8583614000565b90505b8067ffffffffffffffff8111156122d9576122d9614017565b60405190808252806020026020018201604052801561234b57816020015b61233860405180608001604052806000815260200160008152602001600073ffffffffffffffffffffffffffffffffffffffff168152602001600081525090565b8152602001906001900390816122f75790505b50925060005b818110156123ce5761239e8861239861236a8985613fe8565b73ffffffffffffffffffffffffffffffffffffffff8c16600090815260086020526040902060030190612eee565b89611aca565b8482815181106123b0576123b0614046565b602002602001018190525080806123c690613faf565b915050612351565b50505b50949350505050565b60026004541415612447576040517f08c379a000000000000000000000000000000000000000000000000000000000815260206004820152601f60248201527f5265656e7472616e637947756172643a207265656e7472616e742063616c6c0060448201526064016106b9565b6002600455612457848433613160565b6124e3576040517f08c379a000000000000000000000000000000000000000000000000000000000815260206004820152602860248201527f4f6e6c7920746f6b656e206f776e65722063616e20616363657074206269642060448201527f6f6620746f6b656e00000000000000000000000000000000000000000000000060648201526084016106b9565b6124ed8484613586565b806124fd57506124fd843361366e565b612589576040517f08c379a000000000000000000000000000000000000000000000000000000000815260206004820152603560248201527f54686520746f6b656e206973206e6f7420617070726f76656420746f2074726160448201527f6e736665722062792074686520636f6e7472616374000000000000000000000060648201526084016106b9565b6000612596858585611aca565b90508181602001511480156125da57508273ffffffffffffffffffffffffffffffffffffffff16816040015173ffffffffffffffffffffffffffffffffffffffff16145b612666576040517f08c379a000000000000000000000000000000000000000000000000000000000815260206004820152602660248201527f5468697320746f6b656e20646f65736e277420686176652061206d617463686960448201527f6e6720626964000000000000000000000000000000000000000000000000000060648201526084016106b9565b6000612671866119a5565b519050600061267f876119a5565b6020015160055490915060009082906126a290610100900460ff166103e8614075565b61ffff166126b09190613fe8565b60055460208601516126ca91610100900460ff169061409b565b6126d491906140d8565b60055490915060009083906126f390610100900460ff166103e8614075565b61ffff166127019190613fe8565b838660200151612711919061409b565b61271b91906140d8565b90506000818387602001516127309190614000565b61273a9190614000565b60408701519091506127859073ffffffffffffffffffffffffffffffffffffffff7f000000000000000000000000000000000000000000000000000000000000000016903384613720565b6127eb86604001516127ac60005473ffffffffffffffffffffffffffffffffffffffff1690565b73ffffffffffffffffffffffffffffffffffffffff7f000000000000000000000000000000000000000000000000000000000000000016919086613720565b73ffffffffffffffffffffffffffffffffffffffff8516158015906128105750600082115b1561285d57604086015161285d9073ffffffffffffffffffffffffffffffffffffffff7f000000000000000000000000000000000000000000000000000000000000000016908785613720565b60408681015190517f42842e0e00000000000000000000000000000000000000000000000000000000815233600482015273ffffffffffffffffffffffffffffffffffffffff9182166024820152604481018b9052908b16906342842e0e90606401600060405180830381600087803b1580156128d957600080fd5b505af11580156128ed573d6000803e3d6000fd5b505060408051895181526020808b0151908201528982015173ffffffffffffffffffffffffffffffffffffffff908116828401526060808c0151908301526080820188905260a0820187905291513394508d9350918e16917fcc8a6de82515ca1ae870ff05651038b858e8bcd1b5143c342987b6dc3c3434539181900360c00190a46129798a8a6133bb565b6129888a8a8860400151612d95565b505060016004555050505050505050565b60005473ffffffffffffffffffffffffffffffffffffffff163314612a1a576040517f08c379a000000000000000000000000000000000000000000000000000000000815260206004820181905260248201527f4f776e61626c653a2063616c6c6572206973206e6f7420746865206f776e657260448201526064016106b9565b73ffffffffffffffffffffffffffffffffffffffff8116612abd576040517f08c379a000000000000000000000000000000000000000000000000000000000815260206004820152602660248201527f4f776e61626c653a206e6577206f776e657220697320746865207a65726f206160448201527f646472657373000000000000000000000000000000000000000000000000000060648201526084016106b9565b612ac68161346f565b50565b60005473ffffffffffffffffffffffffffffffffffffffff163314612b4a576040517f08c379a000000000000000000000000000000000000000000000000000000000815260206004820181905260248201527f4f776e61626c653a2063616c6c6572206973206e6f7420746865206f776e657260448201526064016106b9565b60198160ff161115612bde576040517f08c379a000000000000000000000000000000000000000000000000000000000815260206004820152602b60248201527f417474656d707420746f207365742070657263656e746167652068696768657260448201527f207468616e20322e35252e00000000000000000000000000000000000000000060648201526084016106b9565b6005805460ff909216610100027fffffffffffffffffffffffffffffffffffffffffffffffffffffffffffff00ff909216919091179055565b73ffffffffffffffffffffffffffffffffffffffff828116600090815260086020908152604080832085845260029081019092529091200154163314612cdf576040517f08c379a000000000000000000000000000000000000000000000000000000000815260206004820152602260248201527f4f6e6c7920746f6b656e2073656c6c65722063616e2064656c69737420746f6b60448201527f656e00000000000000000000000000000000000000000000000000000000000060648201526084016106b9565b73ffffffffffffffffffffffffffffffffffffffff821660008181526008602090815260408083208584526002019091529081902090518392917f835a0a426c94e53ab00dd6cf617ba68d1fa6c9162ef7a036b80be930c9a32c5391612d7f91908154815260018201546020820152600282015473ffffffffffffffffffffffffffffffffffffffff166040820152600390910154606082015260800190565b60405180910390a3612d9182826133bb565b5050565b73ffffffffffffffffffffffffffffffffffffffff831660009081526008602090815260408083208584526005019091529020612dd290826137b5565b1561071c5773ffffffffffffffffffffffffffffffffffffffff80841660009081526008602090815260408083208684526005018083528184209486168452600280860184529184208481556001810185905591820180547fffffffffffffffffffffffff000000000000000000000000000000000000000016905560039091018390559185905252612e6590826137e4565b5073ffffffffffffffffffffffffffffffffffffffff831660009081526008602090815260408083208584526005019091529020612ea290612ede565b61071c5773ffffffffffffffffffffffffffffffffffffffff83166000908152600860205260409020612ed89060030183613806565b50505050565b6000612ee8825490565b92915050565b6000612efa8383613812565b9392505050565b6000612f168383600001518460400151613160565b158015612ff25750602082015160408084015190517fdd62ed3e00000000000000000000000000000000000000000000000000000000815273ffffffffffffffffffffffffffffffffffffffff91821660048201523060248201527f00000000000000000000000000000000000000000000000000000000000000009091169063dd62ed3e9060440160206040518083038186803b158015612fb757600080fd5b505afa158015612fcb573d6000803e3d6000fd5b505050506040513d601f19601f82011682018060405250810190612fef9190614113565b10155b80156130c75750602082015160408084015190517f70a0823100000000000000000000000000000000000000000000000000000000815273ffffffffffffffffffffffffffffffffffffffff91821660048201527f0000000000000000000000000000000000000000000000000000000000000000909116906370a082319060240160206040518083038186803b15801561308c57600080fd5b505afa1580156130a0573d6000803e3d6000fd5b505050506040513d601f19601f820116820180604052508101906130c49190614113565b10155b80156130d7575060008260200151115b80156130e65750428260600151115b15612ee85750600192915050565b6000612efa838361383c565b6000612efa8373ffffffffffffffffffffffffffffffffffffffff841661383c565b60006131378383600001518460400151613160565b80156130c7575061314c838360000151613586565b806130c757506130c783836040015161366e565b6040517f6352211e00000000000000000000000000000000000000000000000000000000815260048101839052600090849073ffffffffffffffffffffffffffffffffffffffff821690636352211e9060240160206040518083038186803b1580156131cb57600080fd5b505afa925050508015613219575060408051601f3d9081017fffffffffffffffffffffffffffffffffffffffffffffffffffffffffffffffe01682019092526132169181019061412c565b60015b613227576000915050612efa565b8373ffffffffffffffffffffffffffffffffffffffff168173ffffffffffffffffffffffffffffffffffffffff1614925050509392505050565b804710156132cb576040517f08c379a000000000000000000000000000000000000000000000000000000000815260206004820152601d60248201527f416464726573733a20696e73756666696369656e742062616c616e636500000060448201526064016106b9565b60008273ffffffffffffffffffffffffffffffffffffffff168260405160006040518083038185875af1925050503d8060008114613325576040519150601f19603f3d011682016040523d82523d6000602084013e61332a565b606091505b505090508061071c576040517f08c379a000000000000000000000000000000000000000000000000000000000815260206004820152603a60248201527f416464726573733a20756e61626c6520746f2073656e642076616c75652c207260448201527f6563697069656e74206d6179206861766520726576657274656400000000000060648201526084016106b9565b73ffffffffffffffffffffffffffffffffffffffff821660009081526008602052604090206133ea908261388b565b15612d915773ffffffffffffffffffffffffffffffffffffffff82166000818152600860208181526040808420868552600280820184529185208581556001810186905591820180547fffffffffffffffffffffffff0000000000000000000000000000000000000000169055600390910184905593909252905261071c9082613806565b6000805473ffffffffffffffffffffffffffffffffffffffff8381167fffffffffffffffffffffffff0000000000000000000000000000000000000000831681178455604051919092169283917f8be0079c531659141344cd1fd0a4f28419497f9722a3daafe3b4186f6b6457e09190a35050565b60008173ffffffffffffffffffffffffffffffffffffffff16638da5cb5b6040518163ffffffff1660e01b815260040160206040518083038186803b15801561352c57600080fd5b505afa92505050801561357a575060408051601f3d9081017fffffffffffffffffffffffffffffffffffffffffffffffffffffffffffffffe01682019092526135779181019061412c565b60015b612ee857506000919050565b6040517f081812fc00000000000000000000000000000000000000000000000000000000815260048101829052600090839073ffffffffffffffffffffffffffffffffffffffff82169063081812fc9060240160206040518083038186803b1580156135f157600080fd5b505afa92505050801561363f575060408051601f3d9081017fffffffffffffffffffffffffffffffffffffffffffffffffffffffffffffffe016820190925261363c9181019061412c565b60015b61364d576000915050612ee8565b73ffffffffffffffffffffffffffffffffffffffff1630149150612ee89050565b6040517fe985e9c500000000000000000000000000000000000000000000000000000000815273ffffffffffffffffffffffffffffffffffffffff8281166004830152306024830152600091849182169063e985e9c59060440160206040518083038186803b1580156136e057600080fd5b505afa1580156136f4573d6000803e3d6000fd5b505050506040513d601f19601f820116820180604052508101906137189190614149565b949350505050565b6040805173ffffffffffffffffffffffffffffffffffffffff85811660248301528416604482015260648082018490528251808303909101815260849091019091526020810180517bffffffffffffffffffffffffffffffffffffffffffffffffffffffff167f23b872dd00000000000000000000000000000000000000000000000000000000179052612ed89085906138a3565b73ffffffffffffffffffffffffffffffffffffffff811660009081526001830160205260408120541515612efa565b6000612efa8373ffffffffffffffffffffffffffffffffffffffff84166139af565b6000612efa83836139af565b600082600001828154811061382957613829614046565b9060005260206000200154905092915050565b600081815260018301602052604081205461388357508154600181810184556000848152602080822090930184905584548482528286019093526040902091909155612ee8565b506000612ee8565b60008181526001830160205260408120541515612efa565b6000613905826040518060400160405280602081526020017f5361666545524332303a206c6f772d6c6576656c2063616c6c206661696c65648152508573ffffffffffffffffffffffffffffffffffffffff16613aa29092919063ffffffff16565b80519091501561071c57808060200190518101906139239190614149565b61071c576040517f08c379a000000000000000000000000000000000000000000000000000000000815260206004820152602a60248201527f5361666545524332303a204552433230206f7065726174696f6e20646964206e60448201527f6f7420737563636565640000000000000000000000000000000000000000000060648201526084016106b9565b60008181526001830160205260408120548015613a985760006139d3600183614000565b85549091506000906139e790600190614000565b9050818114613a4c576000866000018281548110613a0757613a07614046565b9060005260206000200154905080876000018481548110613a2a57613a2a614046565b6000918252602080832090910192909255918252600188019052604090208390555b8554869080613a5d57613a5d614166565b600190038181906000526020600020016000905590558560010160008681526020019081526020016000206000905560019350505050612ee8565b6000915050612ee8565b6060613718848460008585843b613b15576040517f08c379a000000000000000000000000000000000000000000000000000000000815260206004820152601d60248201527f416464726573733a2063616c6c20746f206e6f6e2d636f6e747261637400000060448201526064016106b9565b6000808673ffffffffffffffffffffffffffffffffffffffff168587604051613b3e91906141c1565b60006040518083038185875af1925050503d8060008114613b7b576040519150601f19603f3d011682016040523d82523d6000602084013e613b80565b606091505b5091509150613b90828286613b9b565b979650505050505050565b60608315613baa575081612efa565b825115613bba5782518084602001fd5b816040517f08c379a00000000000000000000000000000000000000000000000000000000081526004016106b991906141dd565b73ffffffffffffffffffffffffffffffffffffffff81168114612ac657600080fd5b60008060408385031215613c2357600080fd5b8235613c2e81613bee565b946020939093013593505050565b815181526020808301519082015260408083015173ffffffffffffffffffffffffffffffffffffffff16908201526060808301519082015260808101612ee8565b600060208284031215613c8f57600080fd5b5035919050565b600080600060608486031215613cab57600080fd5b8335613cb681613bee565b95602085013595506040909401359392505050565b6020808252825182820181905260009190848201906040850190845b81811015613d4457613d31838551805182526020810151602083015273ffffffffffffffffffffffffffffffffffffffff6040820151166040830152606081015160608301525050565b9284019260809290920191600101613ce7565b50909695505050505050565b60008060008060808587031215613d6657600080fd5b8435613d7181613bee565b966020860135965060408601359560600135945092505050565b6020808252825182820181905260009190848201906040850190845b81811015613d4457613df1838551805182526020810151602083015273ffffffffffffffffffffffffffffffffffffffff6040820151166040830152606081015160608301525050565b9284019260809290920191600101613da7565b600080600060608486031215613e1957600080fd5b8335613e2481613bee565b92506020840135613e3481613bee565b929592945050506040919091013590565b600060208284031215613e5757600080fd5b8135612efa81613bee565b600080600060608486031215613e7757600080fd5b8335613e8281613bee565b9250602084013591506040840135613e9981613bee565b809150509250925092565b8015158114612ac657600080fd5b600060208284031215613ec457600080fd5b8135612efa81613ea4565b60008060008060808587031215613ee557600080fd5b8435613ef081613bee565b93506020850135613f0081613bee565b93969395505050506040820135916060013590565b60008060008060808587031215613f2b57600080fd5b8435613f3681613bee565b9350602085013592506040850135613f4d81613bee565b9396929550929360600135925050565b600060208284031215613f6f57600080fd5b813560ff81168114612efa57600080fd5b7f4e487b7100000000000000000000000000000000000000000000000000000000600052601160045260246000fd5b60007fffffffffffffffffffffffffffffffffffffffffffffffffffffffffffffffff821415613fe157613fe1613f80565b5060010190565b60008219821115613ffb57613ffb613f80565b500190565b60008282101561401257614012613f80565b500390565b7f4e487b7100000000000000000000000000000000000000000000000000000000600052604160045260246000fd5b7f4e487b7100000000000000000000000000000000000000000000000000000000600052603260045260246000fd5b600061ffff80831681851680830382111561409257614092613f80565b01949350505050565b6000817fffffffffffffffffffffffffffffffffffffffffffffffffffffffffffffffff04831182151516156140d3576140d3613f80565b500290565b60008261410e577f4e487b7100000000000000000000000000000000000000000000000000000000600052601260045260246000fd5b500490565b60006020828403121561412557600080fd5b5051919050565b60006020828403121561413e57600080fd5b8151612efa81613bee565b60006020828403121561415b57600080fd5b8151612efa81613ea4565b7f4e487b7100000000000000000000000000000000000000000000000000000000600052603160045260246000fd5b60005b838110156141b0578181015183820152602001614198565b83811115612ed85750506000910152565b600082516141d3818460208701614195565b9190910192915050565b60208152600082518060208401526141fc816040850160208701614195565b601f017fffffffffffffffffffffffffffffffffffffffffffffffffffffffffffffffe016919091016040019291505056fea2646970667358221220cd7456d407ab739a1eaf92b4f9ed4dedf1094ddac850da567ffcb1160ff6672364736f6c63430008090033",
  "immutableReferences": {
    "3790": [
      {
        "length": 32,
        "start": 10077
      },
      {
        "length": 32,
        "start": 10179
      },
      {
        "length": 32,
        "start": 10293
      },
      {
        "length": 32,
        "start": 12147
      },
      {
        "length": 32,
        "start": 12360
      }
    ]
  },
  "source": "// SPDX-License-Identifier: AGPL-3.0-or-later\n\npragma solidity =0.8.9;\npragma abicoder v2;\n\nimport \"@openzeppelin/contracts/access/Ownable.sol\";\nimport \"@openzeppelin/contracts/utils/Address.sol\";\nimport \"@openzeppelin/contracts/utils/structs/EnumerableSet.sol\";\nimport \"@openzeppelin/contracts/security/ReentrancyGuard.sol\";\nimport \"@openzeppelin/contracts/token/ERC721/IERC721.sol\";\nimport \"@openzeppelin/contracts/token/ERC20/utils/SafeERC20.sol\";\nimport \"./interface/INFTKEYMarketplaceV2.sol\";\nimport \"./NFTKEYMarketplaceRoyalty.sol\";\n\n// TODO: Use struct and functions like object to be clearer\n/**\n * @title NFTKEY Marketplace contract V2\n * Note: Payment tokens usually is the chain native coin's wrapped token, e.g. WETH, WBNB\n */\ncontract NFTKEYMarketplaceV2 is\n    INFTKEYMarketplaceV2,\n    Ownable,\n    NFTKEYMarketplaceRoyalty,\n    ReentrancyGuard\n{\n    using Address for address;\n    using EnumerableSet for EnumerableSet.UintSet;\n    using EnumerableSet for EnumerableSet.AddressSet;\n    using SafeERC20 for IERC20;\n\n    constructor(address _paymentTokenAddress) {\n        _paymentToken = IERC20(_paymentTokenAddress);\n    }\n\n    IERC20 private immutable _paymentToken;\n\n    bool private _isTradingEnabled = true;\n    uint8 private _serviceFeeFraction = 20;\n    uint256 private _actionTimeOutRangeMin = 1800; // 30 mins\n    uint256 private _actionTimeOutRangeMax = 31536000; // One year - This can extend by owner is contract is working smoothly\n\n    mapping(address => ERC721Market) private _erc721Market;\n\n    /**\n     * @dev only if listing and bid is enabled\n     * This is to help contract migration in case of upgrade or bug\n     */\n    modifier onlyTradingOpen() {\n        require(_isTradingEnabled, \"Listing and bid are not enabled\");\n        _;\n    }\n\n    /**\n     * @dev only if the entered timestamp is within the allowed range\n     * This helps to not list or bid for too short or too long period of time\n     */\n    modifier onlyAllowedExpireTimestamp(uint256 expireTimestamp) {\n        require(\n            expireTimestamp - block.timestamp >= _actionTimeOutRangeMin,\n            \"Please enter a longer period of time\"\n        );\n        require(\n            expireTimestamp - block.timestamp <= _actionTimeOutRangeMax,\n            \"Please enter a shorter period of time\"\n        );\n        _;\n    }\n\n    /**\n     * @dev check if the account is the owner of this erc721 token\n     */\n    function _isTokenOwner(\n        address erc721Address,\n        uint256 tokenId,\n        address account\n    ) private view returns (bool) {\n        IERC721 _erc721 = IERC721(erc721Address);\n        try _erc721.ownerOf(tokenId) returns (address tokenOwner) {\n            return tokenOwner == account;\n        } catch {\n            return false;\n        }\n    }\n\n    /**\n     * @dev check if this contract has approved to transfer this erc721 token\n     */\n    function _isTokenApproved(address erc721Address, uint256 tokenId)\n        private\n        view\n        returns (bool)\n    {\n        IERC721 _erc721 = IERC721(erc721Address);\n        try _erc721.getApproved(tokenId) returns (address tokenOperator) {\n            return tokenOperator == address(this);\n        } catch {\n            return false;\n        }\n    }\n\n    /**\n     * @dev check if this contract has approved to all of this owner's erc721 tokens\n     */\n    function _isAllTokenApproved(address erc721Address, address owner)\n        private\n        view\n        returns (bool)\n    {\n        IERC721 _erc721 = IERC721(erc721Address);\n        return _erc721.isApprovedForAll(owner, address(this));\n    }\n\n    /**\n     * @dev Check if a listing is valid or not\n     * The seller must be the owner\n     * The seller must have give this contract allowance\n     * The sell price must be more than 0\n     * The listing mustn't be expired\n     */\n    function _isListingValid(address erc721Address, Listing memory listing)\n        private\n        view\n        returns (bool isValid)\n    {\n        if (\n            _isTokenOwner(erc721Address, listing.tokenId, listing.seller) &&\n            (_isTokenApproved(erc721Address, listing.tokenId) ||\n                _isAllTokenApproved(erc721Address, listing.seller)) &&\n            listing.value > 0 &&\n            listing.expireTimestamp > block.timestamp\n        ) {\n            isValid = true;\n        }\n    }\n\n    /**\n     * @dev See {INFTKEYMarketplaceV2-getTokenListing}.\n     */\n    function getTokenListing(address erc721Address, uint256 tokenId)\n        public\n        view\n        override\n        returns (Listing memory validListing)\n    {\n        Listing memory listing = _erc721Market[erc721Address].listings[tokenId];\n        if (_isListingValid(erc721Address, listing)) {\n            validListing = listing;\n        }\n    }\n\n    /**\n     * @dev See {INFTKEYMarketplaceV2-getTokenListings}.\n     */\n    function getTokenListings(\n        address erc721Address,\n        uint256 from,\n        uint256 size\n    ) public view override returns (Listing[] memory listings) {\n        uint256 listingsCount = _erc721Market[erc721Address]\n            .tokenIdWithListing\n            .length();\n\n        if (from < listingsCount && size > 0) {\n            uint256 querySize = size;\n            if ((from + size) > listingsCount) {\n                querySize = listingsCount - from;\n            }\n            listings = new Listing[](querySize);\n            for (uint256 i = 0; i < querySize; i++) {\n                Listing memory listing = _erc721Market[erc721Address].listings[\n                    _erc721Market[erc721Address].tokenIdWithListing.at(i + from)\n                ];\n                if (_isListingValid(erc721Address, listing)) {\n                    listings[i] = listing;\n                }\n            }\n        }\n    }\n\n    /**\n     * @dev Check if an bid is valid or not\n     * Bidder must not be the owner\n     * Bidder must give the contract allowance same or more than bid price\n     * Bid price must > 0\n     * Bid mustn't been expired\n     */\n    function _isBidValid(address erc721Address, Bid memory bid)\n        private\n        view\n        returns (bool isValid)\n    {\n        if (\n            !_isTokenOwner(erc721Address, bid.tokenId, bid.bidder) &&\n            _paymentToken.allowance(bid.bidder, address(this)) >= bid.value &&\n            _paymentToken.balanceOf(bid.bidder) >= bid.value &&\n            bid.value > 0 &&\n            bid.expireTimestamp > block.timestamp\n        ) {\n            isValid = true;\n        }\n    }\n\n    /**\n     * @dev See {INFTKEYMarketplaceV2-getBidderTokenBid}.\n     */\n    function getBidderTokenBid(\n        address erc721Address,\n        uint256 tokenId,\n        address bidder\n    ) public view override returns (Bid memory validBid) {\n        Bid memory bid = _erc721Market[erc721Address].bids[tokenId].bids[\n            bidder\n        ];\n        if (_isBidValid(erc721Address, bid)) {\n            validBid = bid;\n        }\n    }\n\n    /**\n     * @dev See {INFTKEYMarketplaceV2-getTokenBids}.\n     */\n    function getTokenBids(address erc721Address, uint256 tokenId)\n        external\n        view\n        override\n        returns (Bid[] memory bids)\n    {\n        uint256 bidderCount = _erc721Market[erc721Address]\n            .bids[tokenId]\n            .bidders\n            .length();\n\n        bids = new Bid[](bidderCount);\n        for (uint256 i; i < bidderCount; i++) {\n            address bidder = _erc721Market[erc721Address]\n                .bids[tokenId]\n                .bidders\n                .at(i);\n            Bid memory bid = _erc721Market[erc721Address].bids[tokenId].bids[\n                bidder\n            ];\n            if (_isBidValid(erc721Address, bid)) {\n                bids[i] = bid;\n            }\n        }\n    }\n\n    /**\n     * @dev See {INFTKEYMarketplaceV2-getTokenHighestBid}.\n     */\n    function getTokenHighestBid(address erc721Address, uint256 tokenId)\n        public\n        view\n        override\n        returns (Bid memory highestBid)\n    {\n        highestBid = Bid(tokenId, 0, address(0), 0);\n        uint256 bidderCount = _erc721Market[erc721Address]\n            .bids[tokenId]\n            .bidders\n            .length();\n        for (uint256 i; i < bidderCount; i++) {\n            address bidder = _erc721Market[erc721Address]\n                .bids[tokenId]\n                .bidders\n                .at(i);\n            Bid memory bid = _erc721Market[erc721Address].bids[tokenId].bids[\n                bidder\n            ];\n            if (\n                _isBidValid(erc721Address, bid) && bid.value > highestBid.value\n            ) {\n                highestBid = bid;\n            }\n        }\n    }\n\n    /**\n     * @dev See {INFTKEYMarketplaceV2-getTokenHighestBids}.\n     */\n    function getTokenHighestBids(\n        address erc721Address,\n        uint256 from,\n        uint256 size\n    ) public view override returns (Bid[] memory highestBids) {\n        uint256 tokenCount = _erc721Market[erc721Address]\n            .tokenIdWithBid\n            .length();\n\n        if (from < tokenCount && size > 0) {\n            uint256 querySize = size;\n            if ((from + size) > tokenCount) {\n                querySize = tokenCount - from;\n            }\n            highestBids = new Bid[](querySize);\n            for (uint256 i = 0; i < querySize; i++) {\n                highestBids[i] = getTokenHighestBid(\n                    erc721Address,\n                    _erc721Market[erc721Address].tokenIdWithBid.at(i + from)\n                );\n            }\n        }\n    }\n\n    function getBidderBids(\n        address erc721Address,\n        address bidder,\n        uint256 from,\n        uint256 size\n    ) external view override returns (Bid[] memory bidderBids) {\n        uint256 tokenCount = _erc721Market[erc721Address]\n            .tokenIdWithBid\n            .length();\n\n        if (from < tokenCount && size > 0) {\n            uint256 querySize = size;\n            if ((from + size) > tokenCount) {\n                querySize = tokenCount - from;\n            }\n            bidderBids = new Bid[](querySize);\n            for (uint256 i = 0; i < querySize; i++) {\n                bidderBids[i] = getBidderTokenBid(\n                    erc721Address,\n                    _erc721Market[erc721Address].tokenIdWithBid.at(i + from),\n                    bidder\n                );\n            }\n        }\n    }\n\n    /**\n     * @dev delist a token - remove token id record and remove listing from mapping\n     * @param tokenId erc721 token Id\n     */\n    function _delistToken(address erc721Address, uint256 tokenId) private {\n        if (_erc721Market[erc721Address].tokenIdWithListing.contains(tokenId)) {\n            delete _erc721Market[erc721Address].listings[tokenId];\n            _erc721Market[erc721Address].tokenIdWithListing.remove(tokenId);\n        }\n    }\n\n    /**\n     * @dev remove a bid of a bidder\n     * @param tokenId erc721 token Id\n     * @param bidder bidder address\n     */\n    function _removeBidOfBidder(\n        address erc721Address,\n        uint256 tokenId,\n        address bidder\n    ) private {\n        if (\n            _erc721Market[erc721Address].bids[tokenId].bidders.contains(bidder)\n        ) {\n            // Step 1: delete the bid and the address\n            delete _erc721Market[erc721Address].bids[tokenId].bids[bidder];\n            _erc721Market[erc721Address].bids[tokenId].bidders.remove(bidder);\n\n            // Step 2: if no bid left\n            if (\n                _erc721Market[erc721Address].bids[tokenId].bidders.length() == 0\n            ) {\n                _erc721Market[erc721Address].tokenIdWithBid.remove(tokenId);\n            }\n        }\n    }\n\n    /**\n     * @dev See {INFTKEYMarketplaceV2-listToken}.\n     * People can only list if listing is allowed\n     * The timestamp set needs to be in the allowed range\n     * Only token owner can list token\n     * Price must be higher than 0\n     * This contract must be approved to transfer this token\n     */\n    function listToken(\n        address erc721Address,\n        uint256 tokenId,\n        uint256 value,\n        uint256 expireTimestamp\n    )\n        external\n        override\n        onlyTradingOpen\n        onlyAllowedExpireTimestamp(expireTimestamp)\n    {\n        require(\n            value > 0,\n            \"Please list for more than 0 or use the transfer function\"\n        );\n        require(\n            _isTokenOwner(erc721Address, tokenId, msg.sender),\n            \"Only token owner can list token\"\n        );\n        require(\n            _isTokenApproved(erc721Address, tokenId) ||\n                _isAllTokenApproved(erc721Address, msg.sender),\n            \"This token is not allowed to transfer by this contract\"\n        );\n\n        Listing memory listing = Listing(\n            tokenId,\n            value,\n            msg.sender,\n            expireTimestamp\n        );\n\n        _erc721Market[erc721Address].listings[tokenId] = listing;\n        _erc721Market[erc721Address].tokenIdWithListing.add(tokenId);\n\n        emit TokenListed(erc721Address, tokenId, listing);\n    }\n\n    /**\n     * @dev See {INFTKEYMarketplaceV2-delistToken}.\n     * msg.sender must be the seller of the listing record\n     */\n    function delistToken(address erc721Address, uint256 tokenId)\n        external\n        override\n    {\n        require(\n            _erc721Market[erc721Address].listings[tokenId].seller == msg.sender,\n            \"Only token seller can delist token\"\n        );\n        emit TokenDelisted(\n            erc721Address,\n            tokenId,\n            _erc721Market[erc721Address].listings[tokenId]\n        );\n        _delistToken(erc721Address, tokenId);\n    }\n\n    /**\n     * @dev See {INFTKEYMarketplaceV2-buyToken}.\n     * Must have a valid listing\n     * msg.sender must not the owner of token\n     * msg.value must be at least sell price plus fees\n     */\n    function buyToken(address erc721Address, uint256 tokenId)\n        external\n        payable\n        override\n        nonReentrant\n    {\n        Listing memory listing = getTokenListing(erc721Address, tokenId); // Get valid listing\n        require(listing.seller != address(0), \"Token is not for sale\"); // Listing not valid\n        require(\n            !_isTokenOwner(erc721Address, tokenId, msg.sender),\n            \"Token owner can't buy their own token\"\n        );\n        require(\n            msg.value >= listing.value,\n            \"The value send is below sale price\"\n        );\n\n        address _royaltyRecipient = royalty(erc721Address).recipient;\n        uint256 _royaltyFeeFraction = royalty(erc721Address).feeFraction;\n        uint256 _serviceFee = (listing.value * _serviceFeeFraction) /\n            (1000 + _serviceFeeFraction + _royaltyFeeFraction);\n\n        uint256 _royaltyFee = (listing.value * _royaltyFeeFraction) /\n            (1000 + _serviceFeeFraction + _royaltyFeeFraction);\n\n        // Send value to token seller and fees to contract owner\n        uint256 valueWithoutFees = msg.value - _serviceFee - _royaltyFee;\n\n        Address.sendValue(payable(listing.seller), valueWithoutFees);\n        Address.sendValue(payable(owner()), _serviceFee);\n        if (_royaltyRecipient != address(0) && _royaltyFee > 0) {\n            Address.sendValue(payable(_royaltyRecipient), _royaltyFee);\n        }\n\n        // Send token to buyer\n        emit TokenBought({\n            erc721Address: erc721Address,\n            tokenId: tokenId,\n            buyer: msg.sender,\n            listing: listing,\n            serviceFee: _serviceFee,\n            royaltyFee: _royaltyFee\n        });\n\n        IERC721(erc721Address).safeTransferFrom(\n            listing.seller,\n            msg.sender,\n            tokenId\n        );\n\n        // Remove token listing\n        _delistToken(erc721Address, tokenId);\n        _removeBidOfBidder(erc721Address, tokenId, msg.sender);\n    }\n\n    /**\n     * @dev See {INFTKEYMarketplaceV2-enterBidForToken}.\n     * People can only enter bid if bid is allowed\n     * The timestamp set needs to be in the allowed range\n     * bid price > 0\n     * must not be token owner\n     * must allow this contract to spend enough payment token\n     */\n    function enterBidForToken(\n        address erc721Address,\n        uint256 tokenId,\n        uint256 bidPrice,\n        uint256 expireTimestamp\n    )\n        external\n        override\n        onlyTradingOpen\n        onlyAllowedExpireTimestamp(expireTimestamp)\n    {\n        Bid memory bid = Bid(tokenId, bidPrice, msg.sender, expireTimestamp);\n\n        require(_isBidValid(erc721Address, bid), \"Bid is not valid\");\n\n        _erc721Market[erc721Address].tokenIdWithBid.add(tokenId);\n        _erc721Market[erc721Address].bids[tokenId].bidders.add(msg.sender);\n        _erc721Market[erc721Address].bids[tokenId].bids[msg.sender] = bid;\n\n        emit TokenBidEntered(erc721Address, tokenId, bid);\n    }\n\n    /**\n     * @dev See {INFTKEYMarketplaceV2-withdrawBidForToken}.\n     * There must be a bid exists\n     * remove this bid record\n     */\n    function withdrawBidForToken(address erc721Address, uint256 tokenId)\n        external\n        override\n    {\n        Bid memory bid = _erc721Market[erc721Address].bids[tokenId].bids[\n            msg.sender\n        ];\n        require(\n            bid.bidder == msg.sender,\n            \"This address doesn't have bid on this token\"\n        );\n\n        emit TokenBidWithdrawn(erc721Address, tokenId, bid);\n        _removeBidOfBidder(erc721Address, tokenId, msg.sender);\n    }\n\n    /**\n     * @dev See {INFTKEYMarketplaceV2-acceptBidForToken}.\n     * Must be owner of this token\n     * Must have approved this contract to transfer token\n     * Must have a valid existing bid that matches the bidder address\n     */\n    function acceptBidForToken(\n        address erc721Address,\n        uint256 tokenId,\n        address bidder,\n        uint256 value\n    ) external override nonReentrant {\n        require(\n            _isTokenOwner(erc721Address, tokenId, msg.sender),\n            \"Only token owner can accept bid of token\"\n        );\n        require(\n            _isTokenApproved(erc721Address, tokenId) ||\n                _isAllTokenApproved(erc721Address, msg.sender),\n            \"The token is not approved to transfer by the contract\"\n        );\n\n        Bid memory existingBid = getBidderTokenBid(\n            erc721Address,\n            tokenId,\n            bidder\n        );\n        require(\n            existingBid.value == value && existingBid.bidder == bidder,\n            \"This token doesn't have a matching bid\"\n        );\n\n        address _royaltyRecipient = royalty(erc721Address).recipient;\n        uint256 _royaltyFeeFraction = royalty(erc721Address).feeFraction;\n        uint256 _serviceFee = (existingBid.value * _serviceFeeFraction) /\n            (1000 + _serviceFeeFraction + _royaltyFeeFraction);\n        uint256 _royaltyFee = (existingBid.value * _royaltyFeeFraction) /\n            (1000 + _serviceFeeFraction + _royaltyFeeFraction);\n\n        uint256 valueWithoutFees = existingBid.value -\n            _serviceFee -\n            _royaltyFee;\n\n        _paymentToken.safeTransferFrom(\n            existingBid.bidder,\n            msg.sender,\n            valueWithoutFees\n        );\n        _paymentToken.safeTransferFrom(\n            existingBid.bidder,\n            owner(),\n            _serviceFee\n        );\n        if (_royaltyRecipient != address(0) && _royaltyFee > 0) {\n            _paymentToken.safeTransferFrom(\n                existingBid.bidder,\n                _royaltyRecipient,\n                _royaltyFee\n            );\n        }\n\n        IERC721(erc721Address).safeTransferFrom(\n            msg.sender,\n            existingBid.bidder,\n            tokenId\n        );\n\n        emit TokenBidAccepted({\n            erc721Address: erc721Address,\n            tokenId: tokenId,\n            seller: msg.sender,\n            bid: existingBid,\n            serviceFee: _serviceFee,\n            royaltyFee: _royaltyFee\n        });\n\n        // Remove token listing\n        _delistToken(erc721Address, tokenId);\n        _removeBidOfBidder(erc721Address, tokenId, existingBid.bidder);\n    }\n\n    /**\n     * @dev See {INFTKEYMarketplaceV2-isTradingEnabled}.\n     */\n    function isTradingEnabled() external view override returns (bool) {\n        return _isTradingEnabled;\n    }\n\n    /**\n     * @dev Enable to disable Bids and Listing\n     */\n    function changeMarketplaceStatus(bool enabled) external onlyOwner {\n        _isTradingEnabled = enabled;\n    }\n\n    /**\n     * @dev See {INFTKEYMarketplaceV2-actionTimeOutRangeMin}.\n     */\n    function actionTimeOutRangeMin() external view override returns (uint256) {\n        return _actionTimeOutRangeMin;\n    }\n\n    /**\n     * @dev See {INFTKEYMarketplaceV2-actionTimeOutRangeMax}.\n     */\n    function actionTimeOutRangeMax() external view override returns (uint256) {\n        return _actionTimeOutRangeMax;\n    }\n\n    /**\n     * @dev Change minimum listing and bid time range\n     */\n    function changeMinActionTimeLimit(uint256 timeInSec) external onlyOwner {\n        _actionTimeOutRangeMin = timeInSec;\n    }\n\n    /**\n     * @dev Change maximum listing and bid time range\n     */\n    function changeMaxActionTimeLimit(uint256 timeInSec) external onlyOwner {\n        _actionTimeOutRangeMax = timeInSec;\n    }\n\n    /**\n     * @dev See {INFTKEYMarketplaceV2-serviceFee}.\n     */\n    function serviceFee() external view override returns (uint8) {\n        return _serviceFeeFraction;\n    }\n\n    /**\n     * @dev Change withdrawal fee percentage.\n     * @param serviceFeeFraction_ Fraction of withdrawal fee based on 1000\n     */\n    function changeSeriveFee(uint8 serviceFeeFraction_) external onlyOwner {\n        require(\n            serviceFeeFraction_ <= 25,\n            \"Attempt to set percentage higher than 2.5%.\"\n        );\n\n        _serviceFeeFraction = serviceFeeFraction_;\n    }\n}\n",
  "sourcePath": "/Users/fayexue/projects/nftkey-marketplace-v2/contracts/NFTKEYMarketplaceV2.sol",
  "compiler": {
    "name": "solc",
    "version": "0.8.9+commit.e5eed63a.Emscripten.clang"
  },
  "schemaVersion": "3.4.3",
  "updatedAt": "2021-10-25T04:12:28.362Z",
  "devdoc": {
    "kind": "dev",
    "methods": {
      "acceptBidForToken(address,uint256,address,uint256)": {
        "details": "See {INFTKEYMarketplaceV2-acceptBidForToken}. Must be owner of this token Must have approved this contract to transfer token Must have a valid existing bid that matches the bidder address"
      },
      "actionTimeOutRangeMax()": {
        "details": "See {INFTKEYMarketplaceV2-actionTimeOutRangeMax}."
      },
      "actionTimeOutRangeMin()": {
        "details": "See {INFTKEYMarketplaceV2-actionTimeOutRangeMin}."
      },
      "buyToken(address,uint256)": {
        "details": "See {INFTKEYMarketplaceV2-buyToken}. Must have a valid listing msg.sender must not the owner of token msg.value must be at least sell price plus fees"
      },
      "changeMarketplaceStatus(bool)": {
        "details": "Enable to disable Bids and Listing"
      },
      "changeMaxActionTimeLimit(uint256)": {
        "details": "Change maximum listing and bid time range"
      },
      "changeMinActionTimeLimit(uint256)": {
        "details": "Change minimum listing and bid time range"
      },
      "changeSeriveFee(uint8)": {
        "details": "Change withdrawal fee percentage.",
        "params": {
          "serviceFeeFraction_": "Fraction of withdrawal fee based on 1000"
        }
      },
      "delistToken(address,uint256)": {
        "details": "See {INFTKEYMarketplaceV2-delistToken}. msg.sender must be the seller of the listing record"
      },
      "enterBidForToken(address,uint256,uint256,uint256)": {
        "details": "See {INFTKEYMarketplaceV2-enterBidForToken}. People can only enter bid if bid is allowed The timestamp set needs to be in the allowed range bid price > 0 must not be token owner must allow this contract to spend enough payment token"
      },
      "getBidderBids(address,address,uint256,uint256)": {
        "details": "get all bids of a bidder address",
        "returns": {
          "bidderBids": "All valid bids of a bidder"
        }
      },
      "getBidderTokenBid(address,uint256,address)": {
        "details": "See {INFTKEYMarketplaceV2-getBidderTokenBid}."
      },
      "getTokenBids(address,uint256)": {
        "details": "See {INFTKEYMarketplaceV2-getTokenBids}."
      },
      "getTokenHighestBid(address,uint256)": {
        "details": "See {INFTKEYMarketplaceV2-getTokenHighestBid}."
      },
      "getTokenHighestBids(address,uint256,uint256)": {
        "details": "See {INFTKEYMarketplaceV2-getTokenHighestBids}."
      },
      "getTokenListing(address,uint256)": {
        "details": "See {INFTKEYMarketplaceV2-getTokenListing}."
      },
      "getTokenListings(address,uint256,uint256)": {
        "details": "See {INFTKEYMarketplaceV2-getTokenListings}."
      },
      "isTradingEnabled()": {
        "details": "See {INFTKEYMarketplaceV2-isTradingEnabled}."
      },
      "listToken(address,uint256,uint256,uint256)": {
        "details": "See {INFTKEYMarketplaceV2-listToken}. People can only list if listing is allowed The timestamp set needs to be in the allowed range Only token owner can list token Price must be higher than 0 This contract must be approved to transfer this token"
      },
      "owner()": {
        "details": "Returns the address of the current owner."
      },
      "renounceOwnership()": {
        "details": "Leaves the contract without owner. It will not be possible to call `onlyOwner` functions anymore. Can only be called by the current owner. NOTE: Renouncing ownership will leave the contract without an owner, thereby removing any functionality that is only available to the owner."
      },
      "royalty(address)": {
        "details": "Royalty fee",
        "params": {
          "erc721Address": "to read royalty"
        },
        "returns": {
          "_0": "royalty information"
        }
      },
      "serviceFee()": {
        "details": "See {INFTKEYMarketplaceV2-serviceFee}."
      },
      "transferOwnership(address)": {
        "details": "Transfers ownership of the contract to a new account (`newOwner`). Can only be called by the current owner."
      },
      "withdrawBidForToken(address,uint256)": {
        "details": "See {INFTKEYMarketplaceV2-withdrawBidForToken}. There must be a bid exists remove this bid record"
      }
    },
    "title": "NFTKEY Marketplace contract V2 Note: Payment tokens usually is the chain native coin's wrapped token, e.g. WETH, WBNB",
    "version": 1
  },
  "userdoc": {
    "kind": "user",
    "methods": {},
    "version": 1
  }
}